:020000040800F2
:10000000004F00207D040008C904000845060008D0
:10001000D1040008D5040008D9040008000000003D
:10002000939D939B0899969703010000DD040008B7
:10003000E104000804730008E50400080153000807
:10004000C5040008C5040008C5040008C50400086C
:10005000C5040008C5040008C5040008C50400085C
:10006000C5040008C5040008C5040008C50400084C
:10007000C5040008C5040008C5040008C50400083C
:10008000C5040008C5040008C5040008C50400082C
:10009000E5500008C5040008C5040008C5040008B0
:1000A000C5040008C5040008C5040008C50400080C
:1000B000C5040008C5040008C5040008C5040008FC
:1000C000C5040008C5040008C5040008C5040008EC
:1000D000C5040008C5040008AD4C0008C5040008AC
:1000E000C5040008C5040008C5040008FFFFFFFFA1
:1000F000FFFFFFFFFFFFFFFFFFFFFFFFFFFFFFFF10
:10010000FFFFFFFFFFFFFFFFFFFFFFFFFFFFFFFFFF
:10011000FFFFFFFFFFFFFFFFFFFFFFFFFFFFFFFFEF
:10012000FFFFFFFFFFFFFFFFFFFFFFFFFFFFFFFFDF
:10040000A3F5803A704700BF174B002B08BF134B72
:100410009D46FFF7F5FF00218B460F461348144A0F
:10042000121A06F01EFD0E4B002B00D098470D4B04
:10043000002B00D098470020002104000D000D483B
:10044000002802D00C48AFF3008000F0C3F9200070
:10045000290000F0E7F906F0C9FC00BF0000080021
:100460000000000000000000004F0020E00100201C
:10047000C81B0020000000000000000072B60A48FF
:100480000A4901600A6882F30888094880470949D7
:10049000094A0A4B9A42BEBF51F8040B42F8040BBA
:1004A000F8E762B60648804708ED00E00000000863
:1004B000914700080885000800000020E0010020A6
:1004C00009040008FFF7FEBF084800470848004736
:1004D00008480047084800470848004708480047C0
:1004E000084800470848004708480047C904000872
:1004F00045060008D1040008D5040008D904000806
:10050000DD040008E1040008E504000801530008C8
:10051000034613F8012B002AFBD1181A0138704743
:100520000348044B834202D0034B03B11847704782
:10053000E0010020E0010020000000000548064B1B
:100540001B1AD90F01EBA301491002D0034B03B1D1
:1005500018477047E0010020E00100200000000083
:1005600010B5064C237843B9FFF7DAFF044B13B1FB
:100570000448AFF300800123237010BDE001002088
:1005800000000000E084000808B5054B1BB10549D8
:100590000548AFF30080BDE80840FFF7CFBF00BFBC
:1005A00000000000E4010020E084000808B5EFF33B
:1005B000088400F00F030D2B01D1EFF30984E369E8
:1005C0009A0554BF04F1200504F12405C30658BF61
:1005D000483503F005F8EFF3098003F001F8EFF375
:1005E000088002F0FDFFEFF3148002F0F9FF2846C7
:1005F00002F0F6FF606902F0F3FFA06902F0F0FF7D
:10060000E0690E4C02F0ECFFE06A02F0E9FFA06A3C
:1006100002F0E6FF206B02F0E3FFE06B02F0E0FF88
:10062000606B02F0DDFFA06B02F0DAFF43220020D6
:10063000034903F0B7F800F0ADF9FEE700ED00E084
:10064000907300087046FFF7B1FF70472DE9F74F30
:1006500002F080FF10B1642004F0C4FE04F0DAFE62
:10066000474B01241860002004F048FA002004F0F1
:100670004FFA012004F04EFA02F0F8FD05F07AFF7F
:10068000012001F0D3FB002005F082FF00233D4E46
:10069000DFF8F4803D4F1A4621463D483370C8F8D4
:1006A00000303C7004F0A3FE032104F0A5FE0B25EE
:1006B000DFF8E090DFF8E0B04FF0FF32002140F2C9
:1006C000032004F09FFE10F4007F824601D004F066
:1006D00065FD1AF0010F23D05A2001F0C1FB3378D9
:1006E000012B03D1D8F8003043B933703B78042B89
:1006F00016D8DFE803F03C2D15350900013BC8F89A
:100700000030002BF1D0F1E733784BB90DB1013D4A
:1007100006D10020019305F03BFF019B00253B70B3
:100720001AF0020FC8D099F80030002BC4D09BF803
:1007300000305A1E012A1DD804BB012B03D189F8B1
:1007400000408BF800400124204604F0E3F9B3E7B1
:100750000DB1013DE4D1012005F01AFF0323DDE7CF
:1007600005F038FF0028DBD002233B70D8E700F00B
:1007700011F9D5E7002389F80030E4E70024E3E726
:100780000C020020080200200402002010020020B9
:100790009D07000809020020AC01002010B50A4C9A
:1007A0000221206804F017FE084A1368591C1160E2
:1007B000074A5343B3F1553F05D820680121BDE8EE
:1007C000104004F008BE10BD0C0200200002002002
:1007D000ABAAAAAA7047002383F31488BFF36F8FD4
:1007E00085460847704708B504F096F928B904F023
:1007F0009BF9003818BF012008BD0120FCE77047B5
:100800000122024B1A70024B187070470902002037
:10081000AC010020024B4FF40071186804F0DBBDFE
:100820000C02002008B504F08DF904F049F802F03C
:10083000EBFDFFF7E4FFFFF7D6FF10BB164B1C697B
:10084000FCB1627B237BE07B43EA0223A27B43EA89
:10085000024343EA006003F02DF890B102F07AFE03
:1008600078B9627B237B43EA0223A27B43EA0243FB
:10087000E27B43EA0263094A9360D3E90001FFF790
:10088000AAFF04F099FD00220548114604F099FDE5
:1008900004F09CFDFEE700BF0473000800ED00E0DB
:1008A0004D06000838B50446EFF3108572B643686C
:1008B000C268D1544068A36801309842606008D390
:1008C0000CBF012000203022074902F06BFF0020FE
:1008D000606023683522181A18BF0120024902F00F
:1008E00061FF85F3108838BD9073000870B5044629
:1008F000EFF3108672B609C8C01A4FF0420218BF53
:1009000001200C4902F04EFF2368E268D55CA26822
:1009100001339342236009D34FF047020CBF0120FB
:100920000020044902F03EFF0023236086F3108874
:10093000284670BD90730008EFF3108172B64268CC
:1009400003689A423CBF80681218D01A81F310885D
:10095000704738B5EFF3108572B68468FFF7ECFF87
:1009600085F31088013C201A38BDF8B515460C46B1
:100970000746FFF7EEFF854228BF05466619B442D9
:1009800001D12846F8BD384614F8011BFFF78AFF4D
:10099000F5E70000BFF34F8F0549064BCA6802F424
:1009A000E0621343CB60BFF34F8F00BFFDE700BF92
:1009B00000ED00E00400FA0500224FF0FF334FF095
:1009C000010CF0B5DFF83CE08A4203DB93FAA3F0B8
:1009D000C043F0BD07250024865C0CFA05F716F02D
:1009E000010F47EA040718BF3C46013D4FEA56068F
:1009F000F3D283EA04631C0E5EF82440013284EAD9
:100A00000323E1E7D46E000800F024BB0023F0B517
:100A10000D46164689B0CDE906330593441C06AF52
:100A200005AB01934FF4807331460093284623466B
:100A3000029707AA00F0C0FE0628F1D801A353F8D8
:100A400020F000BF610A00088B0A0008710A000844
:100A5000210A0008B50A0008A10A0008A10A000836
:100A6000069A1AB12146059800F004FA09B0F0BDC3
:100A7000069A1AB9079BF61A1D44D1E72146059834
:100A800000F0F8F90028F5D0F0E7069A0AB913202B
:100A9000ECE72146059800F0EDF90028E6D1F6E7ED
:100AA000053818BF01204FF4B072034902F07AFEF6
:100AB0001620DBE71520D9E79073000810B540F247
:100AC00001120021044606F0CCF900F04FFE00238D
:100AD0002370BDE8104000F09BB900F099B908B54B
:100AE00002F0FCFE431E5842584108BD08B50023E1
:100AF0001A4600F013F9003818BF012008BDF0B500
:100B0000044690F830000F462F28154685B02DD8A2
:100B1000C0F13006964228BF16462044324606F001
:100B2000C9F994F830103144C9B22F2984F8301033
:100B300027D9002320461A4600F0F0F820B30022FF
:100B400003AB0093114602AB00F026F9D0B902982E
:100B5000214694F83020606300F08CF990B9636B03
:100B600094F8302037441344AD1B63632A4639465A
:100B7000606B00F07FF928B9636B14202B4463632A
:100B800000E0002005B0F0BD1C20FBE708B504F034
:100B900041FC054B62221B6804491B1A584258410C
:100BA000BDE8084002F0FEBD14020020907300086A
:100BB00000F050BAF8B506460F460024074D230151
:100BC00039463046EB58984730B9631C022B4FF03A
:100BD0000104F4D10320F8BDE0B2FCE7B00100202D
:100BE00010B500F1080403222146074806F050F929
:100BF00040B103222146054806F04AF9002814BFF7
:100C00000320012010BD00BF977300089B730008EC
:100C100070B5144C0646257835B18522002012495E
:100C200002F0C0FD022070BD012801D98B22F5E73A
:100C300004F0F0FB0D4B4FF48272186029460C480B
:100C400006F00FF901230B4823700B4B00EB061045
:100C500018604368064898470028E4D003232370AF
:100C6000E1E700BF1C02002090730008140200207E
:100C700020020020B00100201802002070B5154DA0
:100C800004462B780E46012B07D0A42200201249DF
:100C900002F088FD0224204670BDFFF777FF0F4B5E
:100CA00021461B6832469B680D4898471328044626
:100CB00002D102232B70EEE7142800D040B9287827
:100CC000B222431E58420449584102F06BFDE2E74C
:100CD0000323EFE71C020020907300081802002095
:100CE0002002002010B5094C207828B9C0220849FC
:100CF00002F058FD022010BDFFF748FF054B0648E3
:100D00001B68DB68984700232370F4E71C0200206F
:100D100090730008180200202002002030B505461C
:100D20001C462F2994BF0020012085B04722174977
:100D300002F038FD0C2205F1200101A806F0BAF8F6
:100D40000CB9134B1C70134B029A9A420ED103F14B
:100D50007F73019803F5823303F28713984212D010
:100D6000FC3BC31A5842584105B030BD284602F03A
:100D7000A1FD28B114B90122054B1A700320F3E735
:100D8000002CF1D0FAE70220EEE700BF90730008D4
:100D900024030020089996972DE9F843089F81467F
:100DA000984603B147B971220020164902F0FAFCB7
:100DB00002252846BDE8F883002402281C603C6018
:100DC00012D112B1104B994213D100250F4B0E4E88
:100DD0001C6802F04AFC10B9B9F1010F10D0002DC7
:100DE000E7D14CB9B822DFE70328EAD026461C2514
:100DF000EFE726461B25ECE7C8F800603C60D8E723
:100E00001C25D6E79073000800C00008A47F0008E6
:100E100038B50F4D2C783CB1DA2200200D4902F094
:100E2000C1FC0224204638BD3022FF210A4806F0CA
:100E300018F801232B70094B1C70094B1C60094BDF
:100E40001C60094B1C60094B1C70094B1C70E9E7C6
:100E5000350300209073000836030020340300207F
:100E6000300300202C03002028030020260300204C
:100E7000250300202DE9FF47694E154632780446C8
:100E8000012A0F4608D00020EF22664902F08AFCB2
:100E9000022004B0BDE8F087634B197821B963499B
:100EA0001A70086062490860DFF8888198F800309D
:100EB000002B5ED15E4A13685919A342116052D1CA
:100EC000DFF874A15D4BDAF800003946C0F1300953
:100ED000A94528BFA94618444A4605F0EBFFDAF8B1
:100EE00000004F4448442F28CAF80000A5EB09052C
:100EF0004C443AD9A0F130035842584140F2111203
:100F0000484902F04FFC494A01231268DAF8001000
:100F10004A48FFF703FF4A4B4449187002AB00935D
:100F20000122096803ABFFF737FFC8B902F0A1FB44
:100F300098F800004FF49A7280F00100394902F0ED
:100F400031FC029800F05AF950B9012388F80030BA
:100F5000394B3A491A68354B186800F0B3F940B17B
:100F60000323337095E70320D5E798F80030002B72
:100F7000EED198F8003033B12A463946204600F0C9
:100F8000A1F90028ECD12E4B1B78022B43D0032B68
:100F900003D0012B41D000207BE72A4B1878002892
:100FA0003FF477AF284B186900283FF472AF00F187
:100FB0000C025178137843EA0123917843EA014304
:100FC000D17853EA01630BD15179137943EA0123B4
:100FD000917943EA0143D17953EA016002D158E79C
:100FE0009C420CD35379107940EA0320937940EA6C
:100FF0000340D37940EA03608442034601D91432A6
:10100000D7E700283FF445AF2C449C42C3D30223CA
:10101000132033703DE70D4BF6E70D4BF4E700BFAF
:101020003503002090730008250300202C030020C6
:101030002803002026030020300300203603002070
:1010400034030020240300200473000800FC01087E
:1010500000C0000810B50E4B1C783CB9204640F289
:101060006B120C4902F09EFB022010BD00221A7088
:10107000094B187808B100F0BDF9022CF5D0074BE8
:101080001B78032BF1D0002808BF2520EDE700BF17
:10109000350300209073000826030020340300204D
:1010A0002DE9F041DFF84080044698F800300F4EFB
:1010B0000F4FBBB90F4B32681B680F499B683868EC
:1010C00098470123054688F80030FF2132680A4816
:1010D00005F0C7FE33682846B4FBF3F45C433C607C
:1010E000BDE8F0810025F0E78203002078030020AE
:1010F0007C0300206803002084030020F8B5374EED
:10110000054633685B699847336807469B692846FC
:101110009847044607B140B940F2351200203049E3
:1011200002F040FB02242046F8BDB7F5806F8CBF6B
:10113000002001204FF49D72294902F033FB4FF447
:101140008060B0FBF7F07843A0F5806358425841C7
:1011500040F23B12224902F025FBA7428CBF00203F
:1011600001204FF49E721E4902F01CFBB4FBF7F005
:1011700007FB1040B0FA80F040F23D1240091849D8
:1011800002F010FBB5FBF4F0164BB4F5806F04FBD6
:1011900000F01C6028BF4FF48064134B134F18609D
:1011A0003368134D1B6A38602C6033B1984704468E
:1011B00018B133685B689847B5E70E4B1B7833B1BD
:1011C00033683868DB68984704460028F1D1FF216E
:1011D0002A68094805F045FE0024A4E768030020BA
:1011E00090730008700300207C030020740300202B
:1011F000780300208003002084030020F8B5254EEA
:101200000446357835B147220020234902F0CAFA56
:1012100002242AE000282AD0436843B3836833B30A
:10122000C36823B3036913B3436903B38369F3B199
:10123000C369E3B14FF48062FF21184805F011FE45
:101240000122174B1A70174B1D70174B1D60174B5F
:101250001D60174B1D60174B1D60174B1D60174D10
:1012600023682C609847044618B12046F8BD4D22EB
:10127000CAE7134B1B784BB92B681B699847074685
:1012800020B12B683C465B689847EEE7012333703A
:10129000EBE700BF66030020907300088403002082
:1012A00082030020810300207C03002078030020BB
:1012B00074030020700300206C03002068030020EA
:1012C000800300202DE9F74F404D834695F80080BC
:1012D0000E46B8F1010F144608D000207B223C498D
:1012E00002F060FA022003B0BDE8F08F394F3A787F
:1012F00052B9FFF703FF10B102232B70F3E7364A10
:1013000087F80080C2F800B0DFF8D080324FD8F8FC
:1013100000103A68BBFBF1F0B2FBF1F248434A43DC
:10132000904204D05846FFF7BBFE0028E4D1DFF816
:10133000B0A03A68DAF80010BBFBF1F0B2FBF1F2B2
:1013400048434A43904236D1DFF89890D9F80020BC
:10135000D8F800100A445A4504D85846FFF7A0FEB2
:101360000028C9D16CB3204BDAF800101A680A447F
:101370005A4504D85846FFF7C1FE0028BCD1D9F819
:101380000000D8F80020194B0244A2EB0B02A24245
:1013900028BF2246ABEB000031461844019205F00D
:1013A00089FD019A1248B2FA82F149090170934409
:1013B0001644A41ACAE75846FFF7A0FE0028C3D077
:1013C0009AE72046C7F800B08DE700BF660300200B
:1013D00090730008810300206C0300207803002034
:1013E000700300207C03002074030020840300208D
:1013F0008203002070B5194E307828B9CC221849E4
:1014000002F0D0F9022070BD012824D10020FFF79E
:1014100047FE0446134B1B685B6898474FF4806295
:101420000546FF21104805F01CFD01220F4B1A70E4
:1014300000230F4A9D4214BF2846204613700D4AD0
:10144000337013600C4A13600C4A13600C4A13602B
:101450000C4A1360D7E70024DCE700BF66030020D6
:10146000907300086803002084030020820300209A
:10147000810300207C0300207803002074030020F7
:10148000700300206C0300204FF480607047000060
:10149000024B1878431E5842584170479A0B00205F
:1014A00038B5214C2378012B06D0FF2200201F499C
:1014B00002F078F9022038BDC0F3090545B140F2C9
:1014C00007120020194902F06DF902232370F1E799
:1014D000174A13784BB1174B17491B6809680B441F
:1014E000834202D04FF48772EBE700F17843B3F503
:1014F000404F03D2022321202370DCE70121117029
:101500004FF480610B4AA3F5404310600A4AB3F5DB
:101510009E3F116004D201F0E9FD0028CBD0E9E73D
:10152000022323202370C6E79A0B00209073000843
:10153000980B0020940B0020900B0020F8B5144D60
:101540002B78012B07D040F237120020114902F00E
:1015500029F90220F8BD104E337843B140F23D1214
:1015600000200C4902F01EF902232B70F1E70B4C0E
:101570000B4F2046FFF794FF18B1022322202B7057
:10158000E8E704F58064BC42F3D101233370E1E75E
:101590009A0B002090730008990B002000C00008EF
:1015A00000FC010808B5094B187828B983220849BE
:1015B00002F0F8F8022008BD0020187003F03AF994
:1015C000002814BF1F200020F5E700BF9A0B002061
:1015D0009073000838B5154D2C783CB1622200207C
:1015E000134902F0DFF80224204638BD2246214686
:1015F000204603F01DF9B0B90E4B4FF480621C7009
:101600000D4B21461C700D4B0D481C600D4B1C6092
:101610000D4B1C700D4B1C600D4B1C6005F021FC2C
:1016200001232B70E0E71E24DEE700BF9A0B0020A9
:1016300090730008990B0020980B0020940B002059
:1016400084070020900B00208C0B0020880B0020CA
:10165000840B002070B5394D04462B780E46012BC3
:1016600006D0A2220020364902F09CF8022042E077
:10167000C0F309033BB1AB220020314902F092F8DC
:1016800002232B70F2E7B2F5806F02D3C2F3090098
:1016900008B1B222F0E7B2F5806F02D0B922284932
:1016A000ECE7284B1B787BB9274B187808B9C12287
:1016B000F5E7264B1B68A34204D8254A1268134459
:1016C000A34201D8C722D7E7224A137843B1224B5D
:1016D00022491B6809680B44A34201D0CF22CBE703
:1016E0004CF2FE3104F1784303F2FF30884203D814
:1016F000022320202B7070BD012111704FF48061F6
:10170000154AA3F540431460144AB3F59E3F116097
:101710000CD23246204601F0F2FC0028E8D1104BF2
:1017200004F580649C4205D20020E4E702232320D4
:101730002B70E0E701F060FDF6E700BF9A0B002098
:1017400090730008990B0020980B0020940B002048
:10175000900B00208C0B0020880B0020840B0020B5
:1017600000FC01084FF480607047000038B5252266
:101770000021094805F075FB0023084A0849137049
:10178000084C0948094D0A4A0B600A492B7023701E
:10179000037013700B8038BDAC0B0020A60B00202B
:1017A000A80B0020A50B0020A40B0020A30B0020F9
:1017B000A20B0020A00B00202DE9F04F85B0894638
:1017C00002920022B24DDDF840A029780446019330
:1017D000CAF8002000EB0906E9B103783A2B19D0CA
:1017E0001346DFF8B0B2FF210E9A0198039305F07B
:1017F00038FBDAF80000DBF800100F9B091A1960BB
:10180000361B029BA9EB06061E60039B184605B01B
:10181000BDE8F08F2A70A04B1B78002B40F094801D
:10182000DFF870B2B4423DD09C4D9D4FDFF874821A
:1018300023E00A2B1ED0397898F80020B9B313F0B2
:10184000100F03F00F0303F1090000F00F0008BFB1
:101850000346A85C0343AB5495F800C00132D2B2F2
:101860000CF1040E964588F800202DDBB1FA81F1C9
:10187000490939700134A64212D023780D2BF9D0D2
:101880003A2BD6D125220021284605F0EAFA00237A
:10189000854A0134A64213703B7088F80030ECD1C1
:1018A000DAF800300E9AD31A0E9300239BE7242A0D
:1018B000DCD813F0100F03F00F0303F1090008BF89
:1018C00003461B01AB54D1E7012362461846285C4E
:1018D0000133DBB210449E45C2B21846F7DA002A43
:1018E00040F0CF80704B1A78002ABFD101221A70C5
:1018F000AB786A7842EA032252BA92B2EB78100AC5
:101900006A70A8700D2BB1D801A050F823F000BF69
:101910008D190008E7190008AD1900086D180008B6
:10192000031A00086D1800086D1800086D180008EB
:101930006D1800086D180008F31900086D180008EC
:101940006D1800088D190008544D00232946019F89
:10195000514A3846137011F8042B05F0ABFA297878
:10196000DAF80030DFF82CB10F440B440197CAF8C5
:101970000030DBF800206878AD786FF30F0240EAA2
:10198000052002430A44CBF800204BE7474B1B8855
:10199000002B50D04649098899424CD045490988C6
:1019A000994248D001233A4A137079E70E9BDAF83E
:1019B0000020FF219A1A019805F053FADAF8001076
:1019C000DBF80020331B521A0F99A9EB03030A60BE
:1019D000029A13606A792B79120142EA03320223D8
:1019E000CBF8002012E70E99DAF800208A1A0E923E
:1019F000F9E66A792B7943EA02232C4A5BBA138011
:101A000034E70E9BDAF80020FF219A1A019805F0BE
:101A100028FADAF80010DBF80020331B521A0F996D
:101A2000A9EB03030A60029A13606A792B79120406
:101A300042EA0362D3E7DBF800100B0C1B041343EC
:101A400099423BD10023144962460B7001981A4910
:101A500005F030FA2A78019B697813440193DAF88B
:101A600000301344CAF80030A878DBF8003041EAAF
:101A700000216FF30F030B4313443978CBF8003088
:101A8000F4E60E9ADAF80030D31A0E930423AAE68D
:101A9000A20B0020A80B0020A30B0020AC0B002001
:101AA000A60B0020A50B0020A40B0020A00B0020FB
:101AB0009C0B00209E0B0020B00B00200123054A48
:101AC000013413700E9ADAF80030D31A0E93022301
:101AD00089E600BFA30B0020024B0021186803F029
:101AE00095BC00BFD80B0020014B186803F090BCD8
:101AF000D80B002008B503F08DFC064B40F26912AC
:101B00001B6805491B1A58425841BDE8084001F0BE
:101B100049BE00BFD40B00209073000838B5104CAC
:101B2000104D0FCD0FC40FCD0FC495E8030084E80E
:101B3000030000F01FFB0C4801F026F901F0C0F88B
:101B40004FF40072094B1860094B400A1A600122D9
:101B5000084B1A60084B094A1860094B1A6038BDD7
:101B6000E40B0020CC7F00084D1D0008941B0020D2
:101B7000901B00208C1B0020881B0020100C0020D4
:101B8000841B00207047000008B5FFF7A5FF074B36
:101B90001978074B1A788A4203D1022A04BF01221E
:101BA0001A70BDE80840FFF79FBF00BFE10B00209F
:101BB000E00B00202DE9F047064613380128444C7D
:101BC00094BF002001204FF43A72424901F0EAFD2F
:101BD00094F82030032B07D1BDE8F0474FF43B7257
:101BE00000203C4901F0DEBD2368002B4CD0A569E4
:101BF000E269AA4248D325B16568A268AA1A55428B
:101C0000554194F8268084F82550002B3ED194F855
:101C10002790B9F1030918BF4FF00109002D38D002
:101C200094F82470236994F823A0013333D06068BA
:101C300040F20A32013018BF0120264901F0B2FDFE
:101C4000626823699B1A6269B2EB432F8CBF012340
:101C5000002316B3032384F8203094F82030032B9C
:101C60000BD194F821302BB1FFF73CF8002384F816
:101C7000213006B13046184B1870B8F1000F25D14D
:101C8000BDE8F047FFF780BF0025BAE74FF0010934
:101C9000C4E72F46C6E70023DBE7B8F1000F0AD000
:101CA0003BB987F00107BF00FFB2994518BF3E4618
:101CB000D0E70626CEE71AEA050FCBD10FB10223F3
:101CC000C9E7B9F1000FC8D00123C4E7BDE8F08728
:101CD000E40B0020907300080C0C002030B4194C69
:101CE00094F82050032D06D130BC40F2352200205C
:101CF000154901F057BD256805B92060A06801307D
:101D000094F8270008BFA1600328A06908BF84F8E1
:101D10002730904207D9E069904204D91AB10320D4
:101D200030BCFFF747BF481C02D0A0688842F6D1FC
:101D3000032B03D094F827109942F0D10020A26120
:101D4000EEE700BFE40B0020907300082DE9F0419E
:101D5000324C1D4680460F46164600F077FA94F83E
:101D60002030032B40D0022F15D12468B4423BD140
:101D7000284600F0FBFF0646284600F0D1FF054646
:101D80004046FEF72DFF3246034629462046BDE871
:101D9000F041FFF7A3BFCFB94046FEF721FF03286C
:101DA00022D0284600F0EDFF83071DD44046FEF701
:101DB00017FF0746284600F0D9FF0446284600F0E2
:101DC000AFFF3B46014622463046E0E7012F0BD1EC
:101DD0002368B34208D194F822303BB100234FF07E
:101DE000FF322360A260A361BDE8F0810C4D0FCDEE
:101DF0000FC40FCD0FC495E8030084E80300FFF77C
:101E00006BFE084B1A78012A04D1074A1278022A7D
:101E100008BF1A70BDE8F041FFF766BEE40B002072
:101E2000CC7F0008E00B0020E10B002010B5044639
:101E3000FFF760FEFFF772FE44B920462346054ACD
:101E40001070054A1070054A136010BD022001236E
:101E5000F5E700BFE10B0020E00B00209C1B0020F9
:101E6000F8B5404E404C0546FFF744FEFFF734FE00
:101E7000327823789A4203D1BDE8F840FFF734BEA8
:101E800040F2F9120120394901F08CFC3378022B21
:101E900045D1374B93F82030012B54D008D9023B61
:101EA000012B05D940F20B220020304901F07AFCC9
:101EB0004FF4FA734EF65F202E4A1168814203D820
:101EC0000D4499421560D7D925783778012D08BF80
:101ED000022335704FF0000608BF23701660FFF72D
:101EE00003FE022F16D1224C94F82030032B05D08C
:101EF0000123304684F82630FFF75CFE94F820007A
:101F000040F21112C31E58421849584101F04AFCD0
:101F100000F038FA012D1CD9022D1ED0F8BD23B9CE
:101F20002378022B08D10023C4E7012B04D12378A6
:101F3000022B0BD0002BF6D040F21B2200200B49C5
:101F400001F030FCEFE744F62063B3E740F6C4133A
:101F5000B0E70022084B1A60E0E7FFF7DFFD01223F
:101F6000054BF8E7E10B0020E00B00209073000820
:101F7000E40B0020DC0B00209C1B002008B5FFF7C1
:101F8000B9FD014B187808BD0C0C002008B503F012
:101F900041FA094B1860002003F036FA074B18602D
:101FA000FFF7BCFD0023064A1370064A1370064A69
:101FB0001360064A136008BDD40B0020D80B002024
:101FC000E10B0020E00B0020DC0B00209C1B00201C
:101FD00070B504460D461646FFF78CFD064B1B6890
:101FE0004BB10120FEF70CFC324629462046BDE8E5
:101FF000704000F0CFBE70BD9C1B00202DE9F04169
:10200000054688461646FFF775FD534B1B68CBB156
:102010000022524B524C1A6094F82030032B11D0FE
:102020000120FEF7EDFB32464146284600F0DEFE79
:1020300094F82030032B05D094F8223023B1636844
:102040009D423DD2BDE8F08140467102FEF7B2FDEF
:10205000032807462DD094F8210040F285224149FB
:1020600080F0010001F09EFB681C40F2862218BF40
:1020700001203C4901F096FB63685A1C94F8272024
:1020800004BF2B466560032A0ED184F827709D4259
:102090000CD13846FEF7BCFD48B90123E56084F851
:1020A000213084F8223002E09D4207D00320FFF760
:1020B00081FD94F82230002BC4D0C0E7BA42E7E794
:1020C000E3689D420AD0BDD22369B3F1FF3F08BF48
:1020D0002B469D4294BF25612361B3E7E3697702F4
:1020E00003EB46232E44E66094F82360E36126B1B7
:1020F0000020BDE8F041FFF75DBD4FF431720120D3
:10210000184901F04FFB40F2C522164994F821000E
:1021100001F048FB39464046FEF7B0FD132805465E
:1021200010D1FEF7DFFD0123054684F8216084F815
:10213000233084F82430FFF725FD636928463B44AB
:102140006361D6E7142803BF0123354684F82430A1
:1021500084F82460F1E700BF9C1B0020DC0B00200A
:10216000E40B00209073000800220346114610463D
:102170001847704737B5264C264B204610F81F2FBE
:102180004FF08061002A08BF184600F0C1FC2248C9
:10219000FFF7EAFF0022034614F8145F1F481E49A8
:1021A000954218BF204600F0DDFE1D48FFF7DCFF1A
:1021B000002203461A491B4800F0D4FEFFF7DEFE5A
:1021C00040B11948FFF7D0FF0022034616491748CF
:1021D00000F0C8FE4121164B164A174801F0C2F91B
:1021E00058B11648FFF7C0FF1449034600221448AF
:1021F00000F0B8FE002100F091FD4FF00063009365
:1022000003F540430193FFF7B4FF03B030BD00BFB7
:10221000047300089F730008F1240008AB730008E2
:1022200055280008B7730008B5250008C3730008D7
:10223000140E0020160E0020180E0020ED260008B7
:10224000888000080020704700207047F7B50746D7
:102250000C46FFF7F7FF20B902F05EFC18B1022C24
:102260000AD103B0F0BD02F05FFC0028F7D101F005
:10227000FCF90028F3D1F4E7002C69D1012338469A
:102280000DF107018DF80730FFF7DEFF00282DD193
:102290004FF0FF35374E0B223846316804F0B8FD59
:1022A00000B935790134102C06F10806F3D16B1C06
:1022B00010D00F2D45D8DFE805F01908191120249A
:1022C000262A2C303236383C3E42E22200202A496F
:1022D00001F068FA00238DF8073007E0274B1C68EF
:1022E0002368984723699847636898479DF80730A3
:1022F000002BB6D0FFF748FCB3E7012001F0AFF99F
:10230000F4E70020FAE7012001F0AAF9EEE7002047
:10231000FAE7012001F0A5F9E8E70020FAE700203C
:1023200001F086F9E2E70120FAE7012001F09AF9CD
:10233000DCE70020FAE7012001F080F9D6E7002071
:10234000FAE74FF4887200200B4901F02BFACDE731
:10235000012C86D10B223846094904F059FD00288A
:102360007FF47FAF01F03BFA03B0BDE8F040FFF728
:102370000BBC00BF0880000890730008A07F000815
:102380008880000808B5FFF7F9FD08B9FEF702FBE1
:10239000024A13680133136008BD00BF100E00200D
:1023A0002DE9F04FA5B004AE039088469146002178
:1023B000802230462E9C9A4604F053FD3146631E1F
:1023C0007E3413F8012F1AB1A34201F8012BF8D182
:1023D00035462B78402B0ED05BB9AD1B53464A4691
:1023E000414603980195009601F0A8F925B0BDE893
:1023F000F08F0135EDE76B78562B33D8412B01D8A0
:10240000384C37E0423B142BFAD801A252F823F0A3
:10241000B324000801240008C52400080124000892
:102420000124000801240008B92400080124000840
:102430000124000801240008012400086F2400087A
:1024400001240008012400080124000801240008D8
:10245000D124000801240008BF240008AD2400088E
:10246000CB240008623BDAB2142ACCD9C8E700F0CA
:1024700079FE04462846FEF74BF807462046FEF74D
:1024800047F83B18023B2B4424AA9A42834627D99B
:10249000BA1EA91C281804F0CBFC5A46214628462F
:1024A00004F008FD2B78002B93D196E700F042FE54
:1024B000DFE700F043FEDCE700F044FED9E700F080
:1024C00045FED6E700F046FED3E700F047FED0E732
:1024D000054B064C13F82A2F002A18BF1C46C9E7E3
:1024E0003D447AE7CF73000804730008D5730008F1
:1024F000F7B50F46F0B9114B4502560231462A4650
:1025000000933846002301F038F90D4B04462A4663
:102510003146009303463846FFF742FF094B044417
:1025200000932A4623463146384601F026F92044D6
:1025300003B0F0BD0029DED00020F9E70E740008DA
:10254000DE740008E17400082DE9F7430A9C984600
:10255000009405460E4617464FF0020901F00DF9AA
:10256000124B3A4631460093044608EB0003CDF87F
:102570000490284601F0E2F80B9B04443A463146A9
:102580000093284608EB040301F0F7F8084B0444D5
:1025900000933A4631462846CDF8049008EB0403F0
:1025A00001F0CCF8204403B0BDE8F0830E750008BC
:1025B000AD7500082DE9F74F0E4615460446FFF7A6
:1025C000DDFC074600F076FD8046384600F086FDCB
:1025D000074654BB284B64026D0222462946CDF8BB
:1025E0000480009330460023FFF7AEFF234B834661
:1025F0000093224603462946304601F0BEF84FF0CC
:102600000109DFF87C80834408F1140A8FB90222A3
:1026100001921C4A5B46009229462246304601F050
:102620008DF8584403B0BDE8F08F002ED2D00020C2
:10263000F8E7D045EBD0B9F1000F0AD1022301939E
:10264000114B2246009329465B46304601F076F84E
:102650008344FB070BD5D8F800205B46009229463F
:102660002246304601F089F84FF000098344C7F351
:10267000470708F10408C9E7047500080A7500084F
:10268000F47F0008AD7500081175000870B4049E51
:10269000044D054C002E18BF2C46049470BCFFF767
:1026A00053BF00BF9C7F0008147500082DE9F0415E
:1026B00086B003AC05460E4620460D99984617464F
:1026C00000F0FCFF00F118030DEB0300002300F8FD
:1026D0000C3C0C9B3A4600933146434628460194F5
:1026E000FFF732FF06B0BDE8F08100002DE9F04FA2
:1026F000002487B08846029438B9394B46021B78CB
:102700005702012B07D1374D09E00029F5D02046AB
:1027100007B0BDE8F08F022B334D18BF0025334BB7
:102720003246394600934046002301F026F8304BEC
:10273000044601932F4B32463946009303464046E8
:10274000FFF702FF2C4B04441B88324601932B4BAE
:102750003946009340462346FFF7A8FF04444DB195
:10276000274B324600933946234640460195FFF7F2
:10277000EBFE044402A800F04DFF82460028C6D0BC
:10278000029B002BC3D01F4B324600933946234691
:10279000404600F0F2FF00254FF00A0B04440DF113
:1027A0000C0904F10A03B3F5007FB0D20A221649DE
:1027B000484604F07FFB029B484653F8251000F082
:1027C00067FF2346324639464046CDE9009B00F07C
:1027D000B5FF0135EBB29A450444E2D897E700BF54
:1027E000140E002016750008217500082D750008CC
:1027F000180E002036750008160E00203B750008E4
:102800004075000847750008D47200082DE9F041B2
:102810000024984647F6300305460E46174686B014
:102820000D990DF10E0003930494ADF814408DF84A
:10283000164000F02DFF03AB01930C9B3A4600932A
:102840003146434628468DF81640FFF77DFE06B018
:10285000BDE8F0812DE9F0460F46664B85B0550284
:1028600046023246294600933846002300F085FF91
:10287000614B044632462946009303463846FFF72B
:102880008FFD5E4B0444324629460093384623466A
:10289000FFF786FD044400F0E6FE594B3246294618
:1028A0000190009338462346FFF7F0FE044400F001
:1028B000DCFE544B324629460190009338462346AD
:1028C000FFF7E4FE044400F0D2FE4F4B32462946A7
:1028D0000190009338462346FFF7D8FE044400F0E9
:1028E000C8FE4A4B3246294601900093384623469B
:1028F000FFF7CCFE044400F0A7FE454B32462946C4
:102900000190009338462346FFF7C0FE414B044434
:102910003246294600933846234600F02EFF3E4BB0
:10292000044400933246234629463846FFF738FDD3
:10293000044400F039FC08B34FF0060A0DF1080911
:1029400052463649484604F0B5FA354B32462946D8
:1029500000933846234600F010FF044400F04AFD7F
:1029600004220146484600F0D3FE2346324629465B
:102970003846CDE9009A00F0E1FE0444294B324686
:10298000009329462346384600F0F7FE044400F041
:10299000F1FB58B100F024FC234B01900093324628
:1029A000234629463846FFF731FF044400F01EFC59
:1029B0001E4B324629460190009338462346FFF7C6
:1029C00025FF1B4B04441B6832460193194B2946D3
:1029D000009338462346FFF769FE174B04440093E3
:1029E0003246234629463846FFF7DAFC204405B034
:1029F000BDE8F08652750008B0750008C075000883
:102A0000CD750008D8750008EB750008FE75000844
:102A10001B7600082876000843760008DE7200085E
:102A20005C76000870760008C8760008D776000843
:102A3000100E0020E5760008F37600087047704716
:102A400010B5540208462246002104F00AFA204636
:102A500010BD000008B540B908464FF400720449A3
:102A600004F028FA4FF4007008BD0020FCE700BF16
:102A70003413002008B540B908464FF400720449E9
:102A800004F018FA4FF4007008BD0020FCE700BF06
:102A90003415002083185B02B3F5806F70B50646CD
:102AA0000D46144607D9002040F263220A4900F07F
:102AB00079FE002070BD4FF400720021284604F01A
:102AC000D0F936B9054B28461A680549520104F079
:102AD000F1F96002EEE700BF90730008600E00207D
:102AE000710E002043000133B3F5007F05D340F29F
:102AF00039120020044900F055BE044A02F81010B3
:102B0000090AD154704700BF9073000834130020A5
:102B10002DE9F84F4FF0000A8B46DFF868914FF42B
:102B2000007200218046484604F09BF9564F4FF44E
:102B300000720021554804F094F9C02251465448CF
:102B4000C7F800A004F08DF94FF480625146514857
:102B500004F087F9504B514A83F800A0504B514E76
:102B6000514D524C1A6052494FF400724846C6F813
:102B700000A0C5F800A0C4F800A004F09BF90BF574
:102B8000803141F25A0B99F80C2099F80B3043EA46
:102B90000223B1FBF3F199F80D300BFB03F28A42EB
:102BA00067D94FF4AB724349504600F0FBFD99F8EA
:102BB0000D300BFB03F1B1F5803F2CBF0A460846F0
:102BC000B1FBF3F12CBF00200022490089F813006B
:102BD00001F2FF11000ADFF8B8A089F81400490AD1
:102BE000100A89F8202089F8210089F81610100CA5
:102BF000090A120E89F8220089F8232089F8171093
:102C000030222D49504604F055F999F8172099F8CB
:102C10001630012043EA022304222A60DAF8082051
:102C20005B02CAF81430CAF8203002EB4302DAF82B
:102C30002C304FF6FF711A442260F822134B386093
:102C40001A70FF225A70FFF74DFF3B6820220133B4
:102C50003B60002319490F48336004F02BF90B2225
:102C600041460C4804F026F9336801333360BDE86F
:102C7000F88F4FF6917B0BFB03F28A429BD240F216
:102C8000591290E734150020640E00203413002000
:102C900074120020710E0020700E00203F2A0008E0
:102CA0006C0E0020600E0020680E00205C0E0020DC
:102CB0001081000890730008E0800008BE800008C2
:102CC00010B5144BDA7C197D52EA012206D0DC7A69
:102CD0001B7B44EA03245443204610BD93F8212073
:102CE00093F8204044EA022493F8222044EA024464
:102CF00093F8232054EA026405D0DA7A1B7B42EA77
:102D000003235C43E8E740F289122046024900F0C1
:102D100049FDE1E73415002090730008C172704747
:102D200010B5427F037F43EA0223827F43EA0243D6
:102D3000C27F53EA026311D0C27E0A49837E4C7B74
:102D400043EA0223CA7A097B023B42EA012206498E
:102D50000868B0FBF2F004FB030010BD4FF0FF3039
:102D6000FBE700BF341500205C0E0020427F037F8C
:102D700043EA0223827FC07F43EA024343EA0060C2
:102D80007047C07A70470000014B1860704700BF61
:102D90006C0E00202DE9F0478946044615460021B7
:102DA0004846520204F05DF800270F4E06F1C00AB3
:102DB0003846B368844207EB53270ED3A7420CD999
:102DC000A7EB0408A84528BFA846201A4246494652
:102DD000336898474444A5EB080515B10C36B24555
:102DE000E6D1BDE8F08700BF741200202DE9F74F4F
:102DF000002704468B46154638464FF00C0ADFF88C
:102E00004C80DFF84C90D8F80020FBB29A4202D8F0
:102E100003B0BDE8F08F0AFB03939E68844200EB89
:102E200056260DD3B4420BD2321BAA4228BF2A46E3
:102E3000201A59465B6801929847019A1444AD1ACA
:102E40000137002DE4D03046DDE700BF680E0020DA
:102E5000741200207FB50378E52B10D07BB1202BB6
:102E60000DD0461E00F10A0416F8015F10226846D4
:102E70000D4904F01FF8A5F16103192B02D80020B9
:102E800004B070BD1F2D01D8052DF8D16A4600236E
:102E90001178A942F3D00133102B02F10102F7D1CE
:102EA000A642E1D10120EBE7DA7700082DE9F84FDF
:102EB00083185B02B3F5806F894607D9BDE8F84FE8
:102EC0004FF41F720020244900F06CBCB0FA80F46B
:102ED000224B640903EB402B214F4FEA422A0BEBB4
:102EE000441601EB4415B4EB5A1F06D3524649462B
:102EF0005846BDE8F84F03F0DDBF20222946304692
:102F000003F086FFB0B10B222946304603F080FF64
:102F10002B468046324602212846D7F800C0E047BB
:102F20002B78E52B0AD12B46324601213046D7F8C3
:102F300000C0E047013420362035D4E7B8F1000F57
:102F4000F8D02846FFF786FF0028F3D02B463246FC
:102F500000212846EBE700BF90730008710E0020A7
:102F60006C0E00202DE9F74F1D46DFF81C818A46C4
:102F700091460090FFF76EFF40F29512434900F032
:102F800011FC98F80C2098F80B3043EA022398F8CB
:102F90000D2053435F1E2F44B7FBF3F74DB33C4C5A
:102FA0004FF0000B26687A1E30465A4515D84FF66A
:102FB000FF71FFF797FD236801332360354A1368DB
:102FC0001F2B18D94FF4D5720020304900F0EAFBCE
:102FD0000024204603B0BDE8F08F411C89B2019265
:102FE000FFF780FD2068019A013020600BF1010B92
:102FF000DBE72E46E2E7284C284904EB4314013373
:1030000013602046202203F055FF0B222046009932
:1030100003F050FF22482B0A026863772B0CA3773A
:10302000330C257723752D0E1B0AA6760F2A4FEA3F
:103030001626E5776375E67602D94FF4DC72C3E7AE
:10304000184B1949BAF1000F14BF55461D460C2301
:103050005343CD50154D1944B9F1000F18BF4D46DB
:103060004D6098F80C5098F80B30013243EA052374
:1030700098F80D5002606B437B430D4A8B601378C8
:1030800001331370A5E700BF3415002090730008CA
:10309000640E0020600E0020710E00209E8000084B
:1030A000680E0020412A0008741200203D2A000802
:1030B000700E0020272808B503D8054B53F82000D0
:1030C00028B90020F722034900F06CFB024808BD34
:1030D0003883000890730008AF75000827289ABF4E
:1030E000014B185C012070471083000810B5EFF306
:1030F000108472B601F0A0FB84F3108810BD10B5E7
:10310000EFF3108472B601F0B3FB84F3108810BDA6
:1031100000F17843B3F5003F09D201F1784101395C
:103120000144B1F5003F2CBF002001207047002072
:103130007047000000487047FF17002000487047A4
:10314000ED17002000487047C7170020004870475F
:10315000A6170020004870479D17002000487047C0
:103160009817002000487047F21700200048704769
:103170003417002008B50C210848FFF7C9FF50B1EB
:103180004FF00063064A196A914205D1586A054B0F
:10319000C31A5842584108BD0020FCE7200000082F
:1031A000939D939B0899969708B50C210848FFF7C3
:1031B000AFFF48B1074B084A196A914205D1586AD6
:1031C000064BC31A5842584108BD0020FCE700BF17
:1031D00020C0000800C000088F9E939B0899969716
:1031E000014B1868704700BF38180020014B186861
:1031F000704700BF34180020002370B5154E164DDF
:10320000164C4BF6FC714FF0006033602B6023606E
:10321000FFF77EFF30B14BF6FC714FF00060FDF719
:10322000CBFB30600E490F48FFF772FF20B10C490D
:103230000C48FDF7C1FB28604FF480610A48FFF796
:1032400067FF28B14FF480610748FDF7B5FB2060A8
:1032500070BD00BF3818002034180020301800203E
:10326000FC3B010000C0000800FC01082DE9F04112
:10327000FFF7C2FF544801F059FC02F0FFF80522A5
:1032800000210446514803F0ECFD21220021504862
:1032900003F0E7FD212200214E4803F0E2FD092260
:1032A00000214D4803F0DDFD05220021474803F0D1
:1032B000D8FD04250026DFF81081454FB81958F8CD
:1032C000041B00F0E5F9013D064415F0FF05F6B2D8
:1032D000F4D1BD552E46414FDFF8F88008EB0500CC
:1032E00057F8041B00F0D4F90136F6B22844042E36
:1032F000C5B2F3D100273A49374808F8057000F005
:10330000C7F9354BC0B21F5402F086F83246014669
:103310002E4803F0CFFD2D4B324A1F71C4F30F33FB
:10332000092B8CBF573330331370C4F30323092B9D
:103330008CBF573330335370C4F30313092B04F09D
:103340000F048CBF57333033092C8CBF57343034C3
:10335000D4700024937014713022234B21461A70CC
:1033600032225A7035229A7039222048DA7031227E
:103370001C7103F076FD15491C4803F07AFD1949CC
:103380001A4803F076FD1249184803F072FD1249FD
:10339000164803F06EFD1548FDF7BAF8C0B2144B9D
:1033A000421C52001A70032225465A700F4AE1B29D
:1033B000884201D8BDE8F08112F8011BDD709970D8
:1033C00001340233F3E700BF4C180020ED17002052
:1033D000C7170020A61700209D1700203C180020CA
:1033E00008999697E817002098170020FF170020EB
:1033F0003417002008B5FFF7D7FE08B1014B986AD3
:1034000008BD00BF00C0000870B5304D304C8E22A2
:103410000021284603F025FD6278237843EA022341
:10342000A27843EA0243E27843EA0263294A9342DC
:103430004AD163792279214642EA03228E2A16462E
:1034400038BF8E268E2A28BF8E22284603F032FDF2
:10345000002385F847308E2200211D4803F001FD2E
:10346000642323706C2363707623A3706B2326710F
:1034700041221949360A1948E370667103F01AFDB2
:1034800095F8492095F84830154943EA022384F815
:10349000483095F84B201B0A84F8493095F84A309B
:1034A00084F84B200F48920084F84A3003F002FD64
:1034B00095F88C3084F88C3095F88D3084F88D3008
:1034C000BDE8704000F0CAB88E26C4E75C18002042
:1034D000004F0020646C766B63180020074F0020BB
:1034E000A81800204C4F0020F8B50D460446FDF703
:1034F0000FF84122471C064600210B4803F0B1FC9F
:10350000412F82BF4127403EA4193A462146064832
:1035100003F0D0FC0122054B83F8485083F84A2081
:103520002D0A83F84950F8BD074F0020004F0020B6
:10353000412208B50021064803F093FC0023044A09
:1035400082F8443082F8413082F8423008BD00BF32
:10355000074F0020024B9879003818BF01207047B0
:103560005C1800202DE9F84306461B48884617469C
:103570001D46FCF7CDFF814626B14246002130466C
:1035800003F06FFC0FB100233B800DB100232B70C3
:10359000124CE079D0B109F1010290453FBFC8F16A
:1035A000070189180919424628BFE11D56B194F850
:1035B000483094F8490043EA00233B80304603F04A
:1035C00079FC01E0002FF9D115B90120BDE8F8839D
:1035D00094F84A302B70F8E7074F0020004F002086
:1035E0000B4B024693F84B100F290ED8481CC0B263
:1035F000123183F84B0003EB8103110A1A715971E0
:10360000110C120E9971DA7170470020704700BFDB
:10361000004F0020054A92F84B3023B102F14C03D1
:10362000036092F84B301846704700BF004F0020EF
:10363000014B83F88C007047004F0020014B83F84A
:103640008D007047004F0020034B93F88D00003829
:1036500018BF0120704700BF004F0020704770471F
:103660007047704770470020704701207047002066
:103670007047002070470000044B0A0901F00F0159
:103680009A5C5B5C0270437002207047D88300082C
:1036900038B505460C46090EFFF7EEFFC4F30741A7
:1036A000A81CFFF7E9FFC4F30721281DFFF7E4FF7B
:1036B000E1B2A81DFFF7E0FF082038BD0023F0B5F8
:1036C0000A4605461C460A20E2B91846234650EA37
:1036D000030404BF012013460A274FF0000C2C18E6
:1036E000B1FBF7F6C4F1010207FB16112A440244AC
:1036F000824201F130017CEB030204F8011D3146E6
:10370000EED3F0BD0133B2FBF0F244F10004DBE78D
:10371000F8B5154606460F46FFF7D0FF854204462A
:103720000AD92A463021304603F09BFB281B394634
:103730003044FFF7C3FF2C462046F8BDF8B5079D7F
:10374000C8B15F19974216D354189C4213D39342C1
:1037500027BF9B1A2A46D11AAA1A36BFD2180021AF
:103760000023E61B1644A74288BF3246069C184435
:10377000214403F09FFB2846F8BD2DE9F341089C46
:10378000054620460E4617469846FCF7C1FE4346BE
:1037900001903A46314628460094FFF7CFFF02B029
:1037A000BDE8F08170B503460D46164648B9EFF303
:1037B000108472B602460146FFF7D4FE10B184F3BE
:1037C000108870BD31462846FFF78EFE84F31088BE
:1037D000EFF30383DB06F4D1FEF7D6F9F1E710B57A
:1037E000EFF3108472B6FFF7A3FE84F3108810BDC8
:1037F0002F4BF7B51C690546002C56D00422002338
:1038000001460DEB0200019303F054FB019804F113
:10381000D4035A7819785E7941EA02219A7841EA0C
:103820000241DA7841EA02611A7942EA06229E7977
:1038300042EA0642DE7942EA066251EA020602D113
:10384000002003B0F0BD884201D3904201D9143367
:10385000DFE704260422A9190DEB020003F02AFB7E
:10386000019804F10C035A7819785F7941EA022132
:103870009A7841EA0241DA7841EA02611A7942EA29
:1038800007229F7942EA0742DF7942EA076251EA5A
:103890000207D5D0884201D3904201D91433E2E720
:1038A0000436102ED6D10120CBE72046C9E700BF51
:1038B0000473000808B5084B02461B680BB11B6A6D
:1038C00023B9BDE808401046FFF792BF984700387B
:1038D00018BF012008BD00BFFC0100200B4A0346B1
:1038E000126812B1526A02B110471A783A2A08D106
:1038F000187A302807D0323803288CBF00200120E6
:103900007047002070470120704700BFFC01002075
:1039100070470000074A08B51368032043F01003FE
:10392000136000F017F80F2001F05EF9FFF7F0FFC9
:10393000002008BD0020024013B5019001F0A0F95D
:10394000044601F09DF9019B001B9842F9D302B097
:1039500010BD000007490302CA6803F4E06322F4C3
:10396000E0621204120C134343F0BF6343F40033CC
:10397000CB60704700ED00E0104AD368D80641BF25
:103980000F49CB6943F00203CB61D368590741BFAC
:103990000B4AD36943F00103D361084BDA69D207BC
:1039A00008D50749CA6942F00402CA61DA6922F0FF
:1039B0000102DA611422DA60704700BF0020024081
:1039C000F0180020064B1A69120641BF054A002074
:1039D0005A6002F1883254BF01205A60704700BF1C
:1039E0000020024023016745034A0020136943F089
:1039F00080031361704700BF0020024070B5054688
:103A000001F03EF90646114CE368D80712D4E3688A
:103A1000990644BF2023E360E368DA0606D4E3692D
:103A2000DB0703D4E06810F0040007D0FFF7A4FF21
:103A3000012003E06B1CE7D00DB9032070BD01F03D
:103A40001FF9801BA842DFD9F7E700BF0020024022
:103A50002DE9F84FDFF898901E4699F81830044683
:103A6000012B0D46174640D001234CF2503089F807
:103A70001830FFF7C3FF98BB012C03D0022C14BFF2
:103A8000042402244FF00008C346DFF868A04FEA80
:103A90000813C3F12001A3F1200206FA01F127FA6D
:103AA00003F3C9F81CB00B4326FA02F21343DAF809
:103AB00010204CF2503042F00102CAF8102025F8D4
:103AC0001830FFF79BFFDAF8103023F00103CAF833
:103AD000103028B908F101085FFA88F39C42D6D863
:103AE000002389F81830BDE8F88F0220FBE700BFFB
:103AF000F0180020002002400022064BDA61064B3D
:103B00001A6942F002021A6158611A6942F04002D1
:103B10001A617047F0180020002002402DE9F041A2
:103B2000264E0746337E8846012B44D00124347646
:103B300003684CF25030022B1AD1FFF75FFF20B11F
:103B4000012000233376BDE8F0811D4CF06123692C
:103B50004CF2503043F004032361236943F04003E7
:103B60002361FFF74BFF236923F004032361E8E798
:103B7000FFF744FF0028E3D14FF0FF33C8F80030CF
:103B80002046BD680E4CFA68BB6803EB8223AB424B
:103B9000D7D92846FFF7B0FF4CF25030FFF72EFF81
:103BA000236923F00203236110B1C8F80050C8E76D
:103BB00005F58065E7E70220C5E700BFF0180020A3
:103BC000002002402DE9F74F00244FF0010826465F
:103BD0004FF00F0EDFF880C1604B0A6808FA06F755
:103BE00007EA020537EA020278D14A68032A07D8B1
:103BF000013A022A00F28A80DFE802F0989DA300D1
:103C0000122A00F09B8070D8112A00F09180FF2DBD
:103C100092BF814600F10409A6F10802D9F80070AC
:103C200094BFB20092000EFA02FA27EA0A0704FAD9
:103C300002F21743C9F80070D1F8049019F0805FC0
:103C40004CD0DCF8182026F0030742F00102CCF833
:103C50001820DCF8182007F1804702F001020192D9
:103C600007F5803706F0030A019A4FEA8A0ABA6814
:103C70000EFA0AFB22EA0B0B394A904265D002F594
:103C80008062904263D002F58062904261D002F57A
:103C90008062904214BF0422032202FA0AF242EA2E
:103CA0000B02BA601A6819F4803F14BF2A43AA4372
:103CB0001A605A6819F4003F14BF2A43AA435A6095
:103CC0009A6819F4801F14BF2A43AA439A60DA68DD
:103CD00019F4001F14BF2A43AA43DA600136102EDC
:103CE0007FF47BAF03B0BDE8F08FDFF878904A45F2
:103CF0000CD014D8A9F580194A4507D009F57029C8
:103D00004A4503D0A9F580194A4580D18A68D2B1C5
:103D1000012A4FF008040CBF0761476177E7DFF81D
:103D200048904A45F2D009F58039EDE7CC686EE756
:103D3000CC6804346BE7CC68083468E7CC680C3492
:103D400065E7002463E7042461E70022A5E7012278
:103D5000A3E70222A1E700BF0010024000040140D7
:103D60000008014000002210000031100AB101617A
:103D700070470904FBE7000003682DE9F341DE0703
:103D8000054630D42B689C0700F19D802B681A07EC
:103D90001FD5AA690123934E9349002A00F006819A
:103DA00093FAA3F2B2FA82F241F8223000F068FFEF
:103DB0000746022494FAA4F4736A002C00F0F480FD
:103DC000B4FA84F2D340DB0740F1E7800120FFF72B
:103DD000B3FD2B68590700F10981EA69002A40F018
:103DE0007C8100201DE07F4C636803F00C03042BF2
:103DF00007D0636803F00C03082B15D16368D80360
:103E000012D54FF4003393FAA3F322680BB1B3FA3F
:103E100083F322FA03F3D907B4D56B68002BB1D131
:103E2000012002B0BDE8F0816B68B3F5803F19D185
:103E3000236843F48033236000F022FF07464FF4E9
:103E4000003696FAA6F62368002E38D0B6FA86F227
:103E5000D340DA0796D400F013FFC01B6428F2D9D0
:103E60000320DEE7E3B923684FF4003696FAA6F69E
:103E700023F480332360236823F48023236000F03D
:103E8000FFFE07462368E6B1B6FA86F2D340DB07A9
:103E90007FF578AF00F0F4FEC01B6428F2D9DFE7AD
:103EA000B3F5A02F236803D143F480232360BFE739
:103EB00023F480332360236823F48023BBE7324656
:103EC000C6E73246E2E7474C636813F00C0F07D0B1
:103ED000636803F00C03082B1DD16368DF031AD459
:103EE000022393FAA3F322680BB1B3FA83F322FA05
:103EF00003F3DE0702D52B69012B91D1F82292FA48
:103F0000A2F2B2FA82F22368696923F0F8039140C1
:103F10000B4323603AE72A690123F2B193FAA3F233
:103F2000B2FA82F2920002F1844202F58402136036
:103F300000F0A6FE0746022696FAA6F6236856B1BA
:103F4000B6FA86F2D340D807D8D400F099FEC01B49
:103F50000228F3D984E73246F4E793FAA3F3B3FADD
:103F600083F39B0003F1844303F584031A6000F09C
:103F700087FE0746022696FAA6F623685EB1B6FAD1
:103F800086F2D340D9077FF501AF00F079FEC01B60
:103F90000228F2D964E73246F3E700F071FEC01B55
:103FA00002287FF609AF5BE722460BE793FAA3F3FB
:103FB000B3FA83F341F8232000F062FE074602249F
:103FC00094FAA4F4736A5CB1B4FA84F2D340D807CB
:103FD0007FF5FFAE00F054FEC01B0228F2D93FE788
:103FE0002246F3E70010024080044242784C794EAA
:103FF000E36943F08053E361E36903F08053019385
:10400000019B336843F48073336000F039FE074648
:104010003368DA0522D5EB68012B25D1236A43F0FA
:104020000103236200F02CFE07464FF0020898FAC5
:10403000A8F698FAA8F3002B47D1636A002E46D061
:10404000B6FA86F2D340DB073FF5C7AE00F018FEA4
:1040500041F28833C01B9842EBD901E700F010FE13
:10406000C01B6428D4D9FBE60BBB236A4FF00208BF
:1040700098FAA8F623F001032362236A23F00403CD
:10408000236200F0FDFD074698FAA8F30BB3236AFC
:104090000EB3B6FA86F2D340D8077FF59EAE00F095
:1040A000EFFD41F28833C01B9842EDD9D8E6052BCD
:1040B000236A03D143F004032362AFE723F0010333
:1040C0002362236A23F00403ABE7236AB6E7324690
:1040D000B8E7636ADCE73246DDE73D4C636803F02E
:1040E0000C03082B3FF49CAE4FF0807393FAA3F3BC
:1040F000B3FA83F3022A4FF000024FEA830303F17D
:10410000844303F584031A604BD100F0B9FD0746E0
:104110004FF0007696FAA6F62368002E3DD0B6FA48
:1041200086F2D340D90732D42B6AB3F5803F05D14C
:104130006268A96822F400320A436260696A6268B0
:104140000B4322F47412134363604FF0807393FAAD
:10415000A3F3B3FA83F301229B0003F1844303F535
:1041600084031A6000F08CFD06464FF0007595FA46
:10417000A5F523689DB1B5FA85F2D340DA073FF57E
:1041800030AE00F07DFD801B0228F2D968E600F019
:1041900077FDC01B0228BFD962E63246C1E72A4636
:1041A000EBE700F06DFD06464FF0007595FAA5F5BA
:1041B00023685DB1B5FA85F2D340DB077FF511AE18
:1041C00000F05EFD801B0228F2D949E62A46F3E79B
:1041D000001002400070004010B586B01A4910224D
:1041E00002A802F067FE40F20123184CADF804303B
:1041F000616801F00C03082B24D14FF4701292FA7D
:10420000A2F2B2FA82F201F47013D34018336B4475
:1042100013F8100CCB0313D54FF4003292FAA2F22C
:10422000B2FA82F2636803F40033D34018336B446C
:1042300013F8142C064BB3FBF2F3584306B010BD31
:10424000044BFAE70248F9E75D7F000800100240DE
:1042500000127A0000093D00524A2DE9F04113682E
:10426000064603F007038B420D462ED332689407AF
:1042700038D4D0073ED44B4A136803F00703AB424F
:104280007ED83268484C12F0040F40F08480130747
:1042900006D56368326923F4605343EAC20363605E
:1042A000FFF79AFFF02292FAA2F2B2FA82F2636862
:1042B00003F0F003D3403D4AD35CD8403C4B186038
:1042C0000F2000F091FC00200AE0136823F00703A0
:1042D0000B431360136803F007038B42C6D0012021
:1042E000BDE8F0813049B0684B6823F0F003034328
:1042F0004B60BEE772682C4C012A216823D14FF431
:10430000003393FAA3F30BB1B3FA83F321FA03F367
:10431000D907E4D5636841F2883823F003031343D7
:10432000636000F0ADFC73680746012B11D1636830
:1043300003F00C03042B9ED000F0A2FCC01B4045F0
:10434000F5D90320CCE7022A0CBF4FF000730223FB
:10435000D7E7022B0FD1636803F00C03082B8AD038
:1043600000F08EFCC01B4045F5D9EAE700F088FC60
:10437000C01B4045E5D8636813F00C0FF6D17AE70F
:10438000136823F007032B431360136803F007033C
:10439000AB42A4D175E76368F16823F4E0630B4393
:1043A000636074E70020024000100240E9830008C7
:1043B000D00100200F2303600B4B5A6802F0030268
:1043C00042605A6802F0F00282605A6802F4E062C9
:1043D000C2605B68DB0803F4E0630361034B1B68A6
:1043E00003F007030B6070470010024000200240FA
:1043F000036A70B523F001030362036A44688269AB
:104400000D6822F073022A438D6823F002032B43C8
:104410000A4DA8420BD1CD6823F008032B438E69C7
:104420004D6924F44074354323F004032C43446065
:1044300082614A684263036270BD00BF002C014084
:10444000036A70B523F480730362036A4468C26927
:104450000D6822F073022A438D6823F4007343EA47
:1044600005230B4DA8420DD1CD6823F4006343EA28
:1044700005238E694D6924F44054354323F4806349
:1044800044EA05144460C2614A68C263036270BDB5
:10449000002C0140036A30B523F480530362036AA1
:1044A0004468C2690D6822F4E64242EA05228D683A
:1044B00023F4005343EA0533064DA84202BF4D6979
:1044C00024F4804444EA85144460C2614A6802646A
:1044D000036230BD002C014070477047022341F257
:1044E000111210B580F8393003680446196A114278
:1044F00008D140F24442196A114202BF1A6822F000
:1045000001021A602046FFF7E8FF002084F8390016
:1045100084F8380010BD0223026880F8393013682F
:1045200043F001031360012380F839300020704705
:1045300070477047022341F2111210B580F83930EC
:1045400003680446196A114208D140F24442196ACC
:10455000114202BF1A6822F001021A602046FFF7DA
:10456000E8FF002084F8390084F8380010BD00000E
:10457000184A036890420AD0B0F1804F07D0A2F5E4
:104580009432904203D002F58062904215D14A687D
:1045900023F0700313430F4A90420AD0B0F1804FCA
:1045A00007D0A2F59432904203D002F58062904287
:1045B00003D1CA6823F44073134303608B68C3625A
:1045C0000B688362034B984204BF0B6903630123AA
:1045D00043617047002C014010B50446A0B190F82B
:1045E000393003F0FF021BB980F83820FFF774FF61
:1045F0000223206884F83930211DFFF7B9FF012319
:10460000002084F8393010BD0120FCE710B50446C5
:10461000A0B190F8393003F0FF021BB980F83820C0
:10462000FFF786FF0223206884F83930211DFFF749
:104630009FFF0123002084F8393010BD0120FCE7E2
:10464000036A70B523F010030362036A4468826949
:104650000D6822F4E64242EA05228D6823F0200329
:1046600043EA05130B4DA8420DD1CD6823F080031A
:1046700043EA05138E694D6924F44064354323F001
:10468000400344EA8504446082614A6882630362AD
:1046900070BD00BF002C014038B590F8383004469A
:1046A000012B4FF002000DD0082A84F839003CD0CD
:1046B00009D8D2B1042A28D00123002084F8393047
:1046C00084F8380038BD0C2AF6D12068FFF7E2FEE6
:1046D000C3690A6943F40063C361C36923F4806357
:1046E000C361C36943EA02232DE02068FFF780FE1F
:1046F00083690A6943F008038361836923F0040333
:104700008361836913438361D6E72068FFF798FFCD
:1047100083690A6943F400638361836923F48063D6
:104720008361836943EA0223EDE72068FFF788FE8F
:10473000C3690A6943F00803C361C36923F0040332
:10474000C361C3691343C361B6E710B50124036AAB
:104750008C4023EA04030362036A8A401A4302621C
:1047600010BD0000006808B50122FFF7EEFF064B00
:10477000984202BF436C43F400434364036843F030
:1047800001030360002008BD002C0140FFF7EABFD1
:104790000F4B1A6842F001021A6059680D4A0A402C
:1047A0005A601A6822F0847222F480321A601A6801
:1047B00022F480221A605A6822F4FE025A604FF4F2
:1047C0001F029A604FF00062034B9A60704700BF6F
:1047D000001002400000FFF800ED00E00F4A5368AF
:1047E00003F00C03082B17D153685168C3F38343BC
:1047F000C80303F1020302D5516889030AD50849A9
:104800004B4352680749C2F303128A5CD340064AFD
:10481000136070470549F3E7044BF2E700100240CC
:1048200000093D00E9830008D001002000127A0051
:10483000002070470020704710B586B00446FFF78F
:10484000C1F81022002102A802F00BFB0023029302
:10485000012301A902A804940593FFF75FF9044618
:10486000FFF7C2F8201E18BF012006B010BD0000DF
:1048700070B50D461446861AFFF7A4F815F0030F1D
:104880004FF06E020CBF012000200C49FEF78AFF9A
:1048900025F003052544AC4204D10024FFF7A4F819
:1048A000204670BD31190023022054F8042BFFF775
:1048B000CFF80028EFD00124F0E700BF9073000884
:1048C0002DE9F041834C98B0A3694FF4004843F0C0
:1048D0000403A361A369012503F004030093009B73
:1048E000A369032643F00803A361A3694FF400778B
:1048F00003F008030193019BA369774A43F0100377
:10490000A361A36908A903F010030293029BA369A2
:1049100043F02003A361A36903F020030393039BE7
:10492000A36943F00103A361A36903F001030493A6
:10493000049B536823F0E06343F000735360A36962
:1049400043F00403A361A36903F004030593059BEB
:10495000624BC3F8148018460B960995CDF8208059
:10496000FFF730F92A464FF400715C48FFF7FEF973
:104970005A4808A90B9609950897FFF723F92A4684
:1049800040215748FFF7F2F94023554808A90893FA
:104990000B960995FFF716F92A4639464F48FFF757
:1049A000E5F94E4808A90B9609950897FFF70AF90B
:1049B0002A4639464948FFF7D9F9484808A90B96CD
:1049C00009950897FFF7FEF82A4629464448FFF75D
:1049D000CDF91123424808A9099308950A95FFF7D4
:1049E000F1F8002241463E48FFF7C0F93C4808A9CB
:1049F0000B960995CDF820800225FFF7E3F84FF4D8
:104A00008073364808A908930B960995FFF7DAF8E2
:104A100006A90CA8FFF7CEFC324B1E68109BB3F51D
:104A2000205F04D0B3F5405F0CBF04250125B6FB21
:104A3000F5F62D4B0027B6FBF3F62C4D2C4B013E23
:104A4000EE606F602F61AF606F612B60A3692846D5
:104A500043F40063A361A36903F400630793079B16
:104A6000FFF768FD804618B152223846214907E019
:104A70002846FFF7CBFD044658B1582240461D4951
:104A8000FEF790FE1C4B1193119B03BB18B0BDE8C1
:104A9000F081702302461290139014901590169096
:104AA000179011A928461193FFF7F6FD074618B194
:104AB000652220460F49E3E72B68760801465E63CE
:104AC0002846FFF763FE0028DCD06C22CDE7119B5F
:104AD000013BD8E7001002400000014000080140FF
:104AE000000C0140D001002000127A0010190020B3
:104AF000002C01409073000840420F00B0FA80F291
:104B00004FF4007101485209FFF730B90008014025
:104B1000FFF7F4BFFFF7F2BF024B9868C04300F005
:104B200001007047000C014000207047044B03F562
:104B3000FD610EC980E80E004FF0A533C3607047D9
:104B400000F0FF1F10B590B01422002101A802F060
:104B500088F90021282206A802F083F90024FFF733
:104B60003DFEFEF7D7FE012101A801910294FFF757
:104B700073FB20B1552220461949FEF713FE4FF46E
:104B8000803301220E93CDE90623022300240D93E6
:104B90004FF4E01306A808940F93FFF7EDF820B147
:104BA000612220460E49FEF7FDFD0F2300240193EC
:104BB00002214FF480630B4A0291039404930594FD
:104BC000136801A843F010031360FFF745FB20B101
:104BD000712220460249FEF7E5FD10B010BD00BF6E
:104BE000907300080020024000B589B001A903A815
:104BF000FFF7E0FB069A1F4BB2F5C06F1B6835D07C
:104C0000B2F5E06F34D0B2F5A06F0CBF02220122E2
:104C1000B3FBF2F34FF47A62B3FBF2F34FF080414F
:104C20001548013B4360002301604FF6FF710361AB
:104C30008360436103F18043C16003F50433DA69A3
:104C400042F00102DA61DB6903F001030293029B87
:104C5000FFF744FC40B9094B18600748FFF7BCFC5C
:104C600010B90548FFF757FC09B000BD0422CFE793
:104C70000822CDE7D0010020501900204C19002057
:104C8000EFF3108072B6074B074A1B6811685B6A26
:104C9000C1EB9303C3F30D030B44136080F310883F
:104CA00010687047501900204C19002038B5144B7B
:104CB0001C68A2060AD513485D68FBF74AFE132854
:104CC00002460FD90F48E9B2FBF7ECFD230608D5E1
:104CD0000D48FBF731FE0A4C50B10B48FBF706FEBE
:104CE000606038BDF2D109490648FBF73EFEEDE7AA
:104CF000E36823F0805323F08003E360F1E700BF13
:104D0000004400408C1900209C1900206E7F000890
:104D10000020704700207047002070470020704737
:104D20000020704770470020704700207047000047
:104D300030B5002487B0092268460D4902F0BAF860
:104D4000694609220B4802F0B5F80B4B172268465A
:104D50000A491C7002F0AEF817226946084802F0B2
:104D6000A9F8044BDC7207B0BDE83040FDF70EB97E
:104D7000E4720008AD190020B51A0020ED72000899
:104D8000B619002010B5EFF3108472B60749084A2F
:104D90000B6842F8230007220133B3FBF2F2C2EBA7
:104DA000C2029B1A0B6084F3108810BDFC1A00200D
:104DB000041B002000F00F0303F1805303F5B853E8
:104DC0009B001A6801064CBF22F4E04222F44152D3
:104DD00022F030021204120C1A60704710B540F62F
:104DE0000F7400F00F0202F1805202F5B8529200E7
:104DF000136810F0800F03EA040483EA010348F209
:104E0000800114BF03F0300303F4405323430B43EA
:104E1000136010BD4FF48012014B1A60704700BF41
:104E200000E100E0064A08B5D36943F40003D3610A
:104E3000FFF7F0FF4FF40042024B5A6108BD00BF7C
:104E400000100240000801400C4B0D4A78B10121CE
:104E5000C3F8401C0021C3F8401CC3F8441C4FF4A5
:104E6000E051C3F8401C4FF4004313617047032125
:104E7000C3F8401C4FF4004353617047005000409A
:104E8000000801404FF480121D4BC3F88020BFF38F
:104E90004F8FBFF36F8F00221A4BC3F8442C1A4B6D
:104EA0001B6853B34FF43C424FF480431343174AFB
:104EB00012681AB14FF4807243F400731A43114B15
:104EC0003021C3F8402C0022C3F8502C104AB020E7
:104ED00012681160702191600E49088048F2FF71DC
:104EE000D1604FF44852C3F8002C8022C3F84C2CF8
:104EF0004FF48012024B1A6070474FF41C42D5E702
:104F000000E100E000500040B8840008BC840008C4
:104F1000DC010020201B0020064BD3F8402C42F07F
:104F20000802C3F8402CD3F8402C42F00402C3F826
:104F3000402C704700500040034AD2F8403C23F018
:104F40000803C2F8403C7047005000407047000022
:104F500021B9034B40F08000C3F84C0C704700BFF0
:104F60000050004010B9B022014B1A80704700BFBA
:104F7000201B0020F0B51F4C8778417903791E4E25
:104F8000246807F00F023F0643EA01234FEA021CA0
:104F9000318804EB02151AD5013344F80C1023F0C4
:104FA00001031944C378318003F00303013BDBB2F2
:104FB000022B8EBF4FF40073104931F813301343A6
:104FC00002F1805202F5B85292001360F0BD3E2B00
:104FD00083BF1F3323F01F035C0101338BBF04F138
:104FE000FF3423F0010344F400445C02A960EC6048
:104FF000D7E700BFDC010020201B0020D884000878
:10500000704743F22001FFF7E9BE0021FFF7E6BE3B
:10501000FFF7D0BE41F21001FFF7E0BE08B5FFF781
:10502000C9FEBDE8084043F23001FFF7D7BE0000DB
:1050300038B5134C00F00F03246804EB0314A36885
:10504000E46803F10053C4F30904944228BF1446F2
:10505000621C03F5405322F001025B000A449142B6
:1050600005D14FF44051FFF7B9FE204638BD33F863
:10507000045B023101F8025C2D0A01F8015CEEE7E5
:10508000DC010020F8B51646154B00F00F041B6834
:10509000220103EB04179B58751C03F1005303F521
:1050A000405325F001055B000D44A9420FD104F1E6
:1050B000805303F5B8539B001B687E6003F03003F8
:1050C000102B02D03021FFF789FE3046F8BD0A7858
:1050D00091F801C0023142EA0C2243F8042BE4E7C4
:1050E000DC0100202DE9F047284E2949D6F8443C40
:1050F000086823F01F0202430A6003F4FE42D24311
:10510000C6F8442C1A0406D5224F40F60F78D6F87C
:10511000440C030403D4BDE8F047FBF77BBB00F06D
:105120000F0000F1805505F5B855AD002C6814F45A
:10513000004A04F0800916D004F40063034312D13E
:105140003B68DB68C3F309036BB9B9F1000F04D006
:10515000114800EA0440FFF715FE04EA080343F093
:1051600080032B6006E040EA0440FFF70BFEBAF133
:10517000000FF2D1B9F1000FC9D024F0F0042405DA
:10518000240D44F400442C60BFE700BF00500040F1
:10519000F81A0020DC0100200000FF7F2DE9F0411B
:1051A000EFF3108272B60021364B1C68196082F34F
:1051B0001088620507D5FFF765FE01F0EBF9324B69
:1051C0001B6803B19847230505D5FFF7A5FE2F4BB4
:1051D0001B6803B19847E70405D5FFF7ADFE2C4BDC
:1051E0001B6803B19847A60503D52A4B1B6803B17A
:1051F0009847650404D5284B1B680BB102209847DB
:10520000A00404D5244B1B680BB10120984721044E
:105210000BD5224E224C234DEFF3108172B632682B
:10522000236881F310889A4201D1BDE8F081EFF341
:10523000108072B60722336855F823100133B3FB90
:10524000F2F2C2EBC2029B1A336080F310880A02AA
:105250001FFA81F84FEA114705D5134B53F8283050
:105260000BB1082098473B04D6D50F4B53F8283094
:10527000002BD1D017F4006F0CBF042002209847F8
:10528000CAE700BFF81A0020C8840008C4840008D8
:10529000C0840008BC840008B8840008001B0020FB
:1052A000FC1A0020041B00207884000800230C4A0C
:1052B000F02013600B4A0C4913600C4A13600C4A2F
:1052C00013600C4A13600C4A13604FF0E0225161E6
:1052D0000A4981F82300936107231361704700BFD7
:1052E000381B0020341B0020FEA50E00301B0020C0
:1052F0002C1B0020281B0020241B002000ED00E0B8
:105300000C4B10B51A680C4C4AB10C4B1B6833B1EE
:105310002068B0FBF3F103FB110000B9904723684C
:1053200001332360064B1A6812B11A68013A1A60F9
:1053300010BD00BF2C1B0020381B0020281B0020A4
:10534000301B0020014B1860704700BF2C1B002051
:10535000014B1860704700BF281B0020024B1860EB
:105360001A68002AFCD17047301B002072B6034A2D
:1053700013680343136062B6704700BF341B0020FC
:10538000054B1A680242FCD0186872B61A6822EA05
:1053900000021A6062B67047341B0020014B18608F
:1053A000704700BF241B0020024B1B680BB100207C
:1053B00018477047241B002008B5FFF777FF00202F
:1053C00008BD08B5FFF7EAFF012008BD08B5FFF7E3
:1053D000EBFF002008BD10B50C460846FFF7C6FFDE
:1053E000204610BD08B5FFF7B9FF002008BD08B57D
:1053F000FFF7A8FF012008BD08B50846FFF7A8FF82
:10540000002008BDFFF7BCBF002070470020704798
:10541000002070470120704780B400AF154B1B6916
:10542000002B22D0134B1B6993F89C2193F89D11FC
:1054300009020A4393F89E1109040A4393F89F3125
:105440001B061343002B10D00A4B1B6993F89C21B9
:1054500093F89D1109020A4393F89E1109040A4327
:1054600093F89F311B06134300E0034B1846BD46DB
:1054700080BC7047047300080873000880B400AF54
:105480000F4B1B69002B14D00D4B1B6993F8A02107
:1054900093F8A1311B0213439BB2002B09D0084B98
:1054A0001B6993F8A02193F8A1311B0213439BB20F
:1054B00001E0034B5B881846BD4680BC704700BFC7
:1054C0000473000800F058B808B51A4A1A4B12784D
:1054D0001979914201D0002008BD5A78FE2A13D0D4
:1054E000FF2AF8D1D9789A7842EA01229979DB79B2
:1054F00041EA03231A43EED100F072F80028EAD003
:1055000001F0A4F80120E7E79A78D97852EA01225D
:10551000E1D19A79DB7942EA0323012BDBD100F058
:1055200073F80028D7D0054B054A1A6001F062F8DD
:10553000E8E700BFB51A0020A01B0020A81B002030
:10554000B61A00207047000010B50446FFF762FD50
:10555000230654BF01234FF48030064A54BF03FA98
:1055600004F004F00F04136848BFA0400343136025
:1055700010BD00BFB81B0020144B1B791A0603F0A6
:105580008F0045BF03F00F024FF480330123934097
:105590000F4A58BF8340127842F08002824214D1F1
:1055A0000C4A1268134210D00B494A780B7843EA30
:1055B00002238A7843EA0243CA7843EA0263074A2D
:1055C000934202D10D22FFF75DBD7047A01B002062
:1055D000D3840008B81B0020581B002055534253A9
:1055E0000023064A01201360054A1370537093701C
:1055F000D3700722034B1A70704700BFB41B002002
:10560000581B0020401B00200022024B01201A7072
:10561000704700BFB61A002010B5194A194C517ACC
:10562000137A43EA0123917AD27A43EA014343EAA7
:10563000026322681449934297BF1A4604232360E9
:1056400003230B70114B1249187840F08000FFF7CC
:1056500019FD104A517A137A43EA0123917A43EAF9
:105660000143D17A43EA016321685B1A190A137274
:105670005172190C1B0ED37200231373917210BD5B
:10568000651B00203C1B0020401B0020D384000829
:10569000751A0020581B002008B5552308494222DE
:1056A0000B7053234B70CB70064B8A7018780D2209
:1056B00040F08000FFF7E6FC0522034B1A7008BD9E
:1056C000581B0020D3840008401B002038B51A4B1B
:1056D0001C681A4B1C606CBB194A1A4D517A137A1C
:1056E00043EA0123917A43EA0143D17A53EA016301
:1056F00009D092F90C30A3420BDA134B187840F022
:105700008000FFF721FF01232B73FFF7C5FF204621
:1057100038BD6A7A2B7A43EA0223AA7A43EA024323
:10572000EA7A43EA0263094A12689342EBD0084BD3
:105730001878E6E70124EAE79C1B0020541B0020B0
:10574000651B0020581B0020D38400083C1B002050
:10575000D28400082DE9F8433C4F3D4B3A681B6862
:105760003C4D9A423DD300263B4B187840F08000D8
:10577000FFF7EAFE2E73FFF78FFFFFF7A7FF041E68
:1057800018BF3446354EDFF8D8803368DFF8D49040
:10579000002B31D1002C31D0334AD8F800301268B8
:1057A00038681A44013AB2FBF3F2D9F800309A4251
:1057B00028BF1A462D4B1968FCF70AFC2B4B264ACA
:1057C0001968107833682246194440F08000FFF7CA
:1057D00059FC254933680A682344121B33600A6068
:1057E0000CE0234B1A78234B33F812601E4B1B68D6
:1057F0009E4228BF1E46C0E7002CDFD1D9F800101A
:10580000D8F800204A439A4204D1002333603B6811
:105810000B443B606A7A2B7A43EA0223AA7A43EA72
:105820000243EA7A43EA02631B1B1A0A2B726A726A
:105830001A0C1B0EAA72EB7234B10B4B1B681BB90E
:1058400003210D4A2B731170BDE8F8834C1B002017
:10585000881B0020581B0020D3840008481B002010
:10586000901B00208C1B0020441B0020841B002068
:10587000B11B0020CE840008401B00202DE9F84316
:10588000454E464B32681B68454F9A4209D3002467
:10589000444B3C601878FFF757FE434B1C73FFF7EF
:1058A000FBFEFFF713FF00B93860DFF800813A68AC
:1058B000D8F800303E481344026893424CD8002187
:1058C0003C4C3D4D3A68D8F800308A424BD83B4DAD
:1058D00013442968C8F80030A1EB0209C5F800900C
:1058E000CAB1374C01682268B9F1000F43D1002BCF
:1058F00041D04C1E1C44B4FBF1F4944228BF144622
:105900002D4B224619683068FCF778FB3368C8F8DD
:10591000009023443360244A3968507A137A43EA6A
:105920000023907A43EA0043D07A43EA00635B1A8B
:10593000180A13725072180C1B0E9072D37249B36E
:105940002B681BB11F4B1B78052B23D1002313732E
:10595000BDE8F843FFF7A0BEFE22BDE8F8430020F3
:105960001949FDF71FBF2A6814F801CB0A4402F851
:1059700003C00131A6E751438B42CCD10E4B3068B6
:105980001968FCF73BFB00232268C8F80030336835
:105990001344BFE7BDE8F8834C1B0020881B0020A0
:1059A0003C1B0020D2840008581B0020481B00200C
:1059B000901B0020751A0020841B0020441B00202F
:1059C0008C1B0020401B002090730008F8B53C4D54
:1059D0003C4B2A681B683C4F9A4209D300243B4B3E
:1059E0003C601878FFF7B0FD394B1C73FFF754FE8D
:1059F000FFF76CFE374C10B93860002128E03A6898
:105A00002368002AF9D0344E83B9344B344A1B68DA
:105A1000126831681A44013AB2FBF3F2314B28683C
:105A20001B689A4228BF1A46FCF7D2FA23683668E8
:105A300039689A192C480B443344934208D012F821
:105A4000017B10F8016BB742F7D00022274B1A6098
:105A5000234A236810680B44401A1060214A2360CF
:105A600016681E4A12687243934204D100232360D1
:105A70002B6833442B60164A547A137A43EA042382
:105A8000947A43EA0443D47A43EA04635B1A1C0A17
:105A9000137254721C0C1B0E9472D37271B118B134
:105AA000134B1B78052B09D1104B1B68B3FA83F3FA
:105AB0005B091373BDE8F840FFF7EEBDF8BD00BF0A
:105AC0004C1B0020881B00203C1B0020D2840008B7
:105AD000581B0020481B0020841B0020901B002026
:105AE000441B00208C1B0020751A0020501B002036
:105AF000401B0020002110B52F4CA27C637C43EAA0
:105B00000223E27C43EA0243227D43EA02632B4AFA
:105B10001BBA13602A4A1160E27BA82A23D01CD842
:105B20002A2A2CD02F2A2AD0282A2CD0254A12689B
:105B30005343254A1360617A227A42EA0122A17A0C
:105B400042EA0142E17A52EA016223D101221F4B6B
:105B50001A73FFF7A1FD002010BDAA2AE6D1FFF7B6
:105B6000B5FD0028F7D0A27D637D43EA0223E27DE4
:105B700043EA0243227E43EA02631BBAD6E7FFF7F9
:105B8000A5FD0028E7D0A37DE27D43EA02235BBAAE
:105B90009BB2CBE793420DD094F90C30002BB5BFEC
:105BA0000B4B0C4B18781878B8BF40F08000FFF70B
:105BB000CBFCCBE70120CFE7651B00204C1B00206E
:105BC000481B0020901B0020441B0020581B002075
:105BD000D3840008D284000808B50F4A517A137A9A
:105BE00043EA0123917A43EA0143D17A53EA0163FC
:105BF00006D10222094B1A73FFF74EFD002008BDA3
:105C000092F90C30002B04DB054B1878FFF79CFC55
:105C1000EFE70120F3E700BF651B0020581B0020C1
:105C2000D284000810B5FFF7D7FF00283AD07022C1
:105C300000241D4B1D481A701D4A5C7012680168D3
:105C400032EA01011BD00621997028215C73197377
:105C5000026000220A21DA701A715A719A711A725E
:105C60005A729A72DA729A73DA731A745A74122226
:105C7000D971104BBDE810401A60FFF7CDBC2AB9AE
:105C8000022199703A2119735A73E2E70A4A127B8A
:105C900012B99A701A73F7E705229A702022597385
:105CA0001A73D6E710BD00BF751A0020541B0020E0
:105CB0009C1B00203C1B0020581B002008B5FFF750
:105CC0008BFFF0B180210F4B002259700221997097
:105CD000D97020211A705A719A71DA710A4A1971B1
:105CE00010680822017851B1013099540132242AF8
:105CF000F8D1064B1A60BDE80840FFF78DBC2021A3
:105D0000F3E708BD751A0020D40100203C1B0020D9
:105D100010B5FFF761FF48B3FFF7D8FC30B303229B
:105D2000134B04201A70002212495A700978DA7055
:105D3000C9019970104B1860104B5C7A197A41EACE
:105D400004219C7A41EA0441DC7A41EA04618142FF
:105D500008D90B49187208724A728A72CA725A724A
:105D60009A72DA72BDE81040FFF756BC10BD00BF52
:105D7000751A0020981B00203C1B0020581B002097
:105D8000651B002010B5FFF727FF68B3FFF79EFCE7
:105D900050B3062100230820144A5170144913708F
:105DA000937009781371C901D17053719371D371D4
