:020000040800F2
:10C00000004F00207DC40008C9C40008D9C600083C
:10C01000D1C40008D5C40008D9C40008000000003D
:10C020008F9E939B089996970301000011C5000805
:10C03000E1C40008F4A101087BC500088BC5000815
:10C04000C5C40008C5C40008C5C40008C5C40008AC
:10C05000C5C40008C5C40008C5C40008C5C400089C
:10C06000C5C40008C5C40008C5C40008C5C400088C
:10C07000C5C40008C5C40008C5C40008C5C400087C
:10C08000C5C40008C5C40008C5C40008C5C400086C
:10C0900099470108C5C40008C5C40008C5C4000804
:10C0A000C5C40008C5C40008C5C40008C5C400084C
:10C0B000C5C40008C5C40008C5C40008C5C400083C
:10C0C000C5C40008C5C40008C5C40008C5C400082C
:10C0D000C5C40008C5C4000839420108C5C4000829
:10C0E000C5C40008C5C40008C5C40008FFFFFFFFA1
:10C0F000FFFFFFFFFFFFFFFFFFFFFFFFFFFFFFFF50
:10C10000FFFFFFFFFFFFFFFFFFFFFFFFFFFFFFFF3F
:10C11000FFFFFFFFFFFFFFFFFFFFFFFFFFFFFFFF2F
:10C12000FFFFFFFFFFFFFFFFFFFFFFFFFFFFFFFF1F
:10C40000A3F5803A704700BF174B002B08BF134BB2
:10C410009D46FFF7F5FF00218B460F461348144A4F
:10C42000121A0CF0F8FB0E4B002B00D098470D4B66
:10C43000002B00D098470020002104000D000D487B
:10C44000002802D00C48AFF3008004F0F0FC20007C
:10C45000290004F091FE0CF0A3FB00BF00000800CF
:10C46000000000002D0E0108004F0020680400208D
:10C470004C2C0020000000000000000072B60A48AA
:10C480000A4901600A6882F3088809488047094917
:10C49000094A0A4B9A42BEBF51F8040B42F8040BFA
:10C4A000F8E762B60648804708ED00E000C00008E3
:10C4B000D13A010874AE0108000000206804002091
:10C4C00009C40008FFF7FEBF0848004708480047B6
:10C4D0000848004708480047084800470848004700
:10C4E000084800470848004708480047C9C40008F2
:10C4F000D9C60008D1C40008D5C40008D9C40008B2
:10C5000011C50008E1C400087BC500088BC5000800
:10C510001EF0040F0CBFEFF30880EFF30980816970
:10C5200011F8021CD9B901B590E80F10E047BDE839
:10C5300000508CE80300194B93E80600914208BFB5
:10C54000704719B12CE9F00FC1F838C01A60906B30
:10C55000B0E8F00F80F309886FF0020E7047104AC0
:10C5600013689942FAD801B552F821C00FC8E047C4
:10C57000BDE80050CCF80000704701B509F036F86E
:10C58000BDE80140EFF3098CD5E701B508F0F6FFEF
:10C59000BDE80140EFF3098CCDE700008C030020DB
:10C5A000D0AA0108034613F8012B002AFBD1181A60
:10C5B000013870470348044B834202D0034B03B158
:10C5C000184770476804002068040020000000003D
:10C5D0000548064B1B1AD90F01EBA301491002D0E5
:10C5E000034B03B11847704768040020680400201B
:10C5F0000000000010B5064C237843B9FFF7DAFFBE
:10C60000044B13B10448AFF300800123237010BD25
:10C6100068040020000000004CAE010808B5054B7E
:10C620001BB105490548AFF30080BDE80840FFF79E
:10C63000CFBF00BF000000006C0400204CAE01081A
:10C6400008B5EFF3088400F00F030D2B01D1EFF3D1
:10C650000984E3699A0554BF04F1200504F1240517
:10C66000C30658BF483505F009FFEFF3098005F010
:10C6700005FFEFF3088005F001FFEFF3148005F0EC
:10C68000FDFE284605F0FAFE606905F0F7FEA06998
:10C6900005F0F4FEE0690E4C05F0F0FEE06A05F0EE
:10C6A000EDFEA06A05F0EAFE206B05F0E7FEE06B08
:10C6B00005F0E4FE606B05F0E1FEA06B05F0DEFE28
:10C6C00043220020034906F0F9F801F03DFDFEE7A2
:10C6D00000ED00E0ED9101087046FFF7B1FF7047F3
:10C6E00010B5EFF3108472B60023C160826003605E
:10C6F000436084F3108810BD38B50446EFF310850D
:10C7000072B64368C268D1544068A3680130984249
:10C71000606008D30CBF012000203022074906F0DA
:10C72000CDF80020606023683522181A18BF012058
:10C73000024906F0C3F885F3108838BD1992010844
:10C7400070B50446EFF3108672B609C8C01A4FF0F0
:10C75000420218BF01200C4906F0B0F82368E268D5
:10C76000D55CA26801339342236009D34FF047029E
:10C770000CBF01200020044906F0A0F8002323602C
:10C7800086F31088284670BD19920108EFF31081D6
:10C7900072B6426803689A423CBF80681218D01A89
:10C7A00081F31088704738B5EFF3108572B684684E
:10C7B000FFF7ECFF85F31088013C201A38BDF8B56F
:10C7C00015460C460746FFF7E1FF854228BF0546A0
:10C7D0006619B44201D12846F8BD3846FFF7B0FFCC
:10C7E00004F8010BF5E7F8B515460C460746FFF7C8
:10C7F000DAFF854228BF05466619B44201D12846B2
:10C80000F8BD384614F8011BFFF776FFF5E770B561
:10C81000064608460C46FFF7C5FE01303C280DD8F9
:10C820002046FFF7BFFE421C2146304615460CF05D
:10C830001BFA002386F83B30E8B270BD3C22F3E7D8
:10C840000C4B1B68B0EBD30F10D200EB5303013B32
:10C85000B3FBF0F0042883BF09230430B0FBF3F0EE
:10C8600001200023044A537050607047012318468A
:10C87000F8E700BFD401002088040020FF234FF018
:10C8800001100B70704700002DE9F04F0478054649
:10C8900084F080031F2B8B4689B004D800F054FE2F
:10C8A00009B0BDE8F08F04F16003DBB25E2B02D863
:10C8B000FFF7E4FFF4E70B4603F8014B02931D2C4E
:10C8C00000F22D85DFE814F01E009300A700DF00C2
:10C8D0003E0250025E042B051505FB000C012B05E2
:10C8E0002B052B052B052B051101A401BA01CA014B
:10C8F00023023A02D5012B052B052B052B052B0511
:10C900002B05D7014378092B0BD8012B11D9033BF9
:10C910008D1C062B12D8DFE803F0171B2236474C7C
:10C920005000FE2B5CD0FF2B54D0F02B5DD0F12BB0
:10C9300046D08BF8014004F10210B1E7A94928461E
:10C94000FFF765FF0446F4E704F0FAF80146F6E75E
:10C9500006222846A4490CF087F90624E9E7A34BF0
:10C960001B69002BE5D093F8A52193F8A41141EAA7
:10C97000022193F8A62193F8A73141EA024151EA36
:10C980000361DCD1D5E7994B1B69002BD1D093F81B
:10C99000A92193F8A81141EA022193F8AA2193F85A
:10C9A000AB3141EA0241EAE7904BD96F0029C6D189
:10C9B000BFE78E4BD3F88010F8E704F0D5F8C5E751
:10C9C00040238B704223CB700F230B710023042470
:10C9D0004B71AEE740238B7000230224CB70A8E795
:10C9E000042301248BF80230A3E73123F9E74378CD
:10C9F00033B1012B0DD0FF237D488BF801305BE074
:10CA00004FF40062837813F0010F7A4B14BF5A6120
:10CA10001A610023F0E74378012B00F228810122FC
:10CA2000754B1A70734B596821F47001596059683D
:10CA300041F4401159604FF400511961596821F0D7
:10CA400070615960596841F0407159604FF48041FC
:10CA50001961596821F470215960596841F4002125
:10CA600059604FF480511961196821F00F01196064
:10CA7000196841F0070119601A6113464FF001105F
:10CA80008BF8013018E0002101205B4B1970594BE5
:10CA90005A6822F470025A605A685A605A6822F042
:10CAA00070625A605A685A605A6822F470225A605A
:10CAB0005A685A608BF8011000F10110F0E6837893
:10CAC00042784E4942EA03224D4B1B68B3FBF1F317
:10CAD00009210833B3FBF1F35343013BFDD198E740
:10CAE000002302208B704B70E6E78278C378417890
:10CAF000007943EA0023687943EA0043A87943EACE
:10CB0000006312F00100009007D04FF40054394840
:10CB100011F0010F14BF0461446112F0020807D044
:10CB20004FF48044334811F0020F14BF0461446194
:10CB30004FFA82FCBCF1000F05DA0124C8092D4828
:10CB400014BF04614461002B3CD02E48DFF8B8E0EC
:10CB5000834228BF03462A48DEF804500468274869
:10CB6000244EB4FBF0F4B5FBF4F502F004074FEAF1
:10CB7000D11902F020024FEA510A009820B1F06862
:10CB8000C0F34030814208D1B8F1000F0DD0B06839
:10CB9000C0F30030824500F0C883DEF80400B0FB2B
:10CBA000F4F0401B8342E8D80CE0002F00F0C08373
:10CBB0008808F2D1BCF1000F04DAB06800F001007F
:10CBC0008145EAD10B491148CB688A688968C3F36B
:10CBD000403343EAC113C2F3003243EA42038BF805
:10CBE000013069E73C92010878A20108F4A101082C
:10CBF00001000200000C01408804002040420F00A8
:10CC0000D4010020C0C62D00001000E00100060085
:10CC1000AB78407840EA0320EB7840EA03402B7978
:10CC200050EA036008D0AC4B9860FFF709FE002380
:10CC3000AA488BF801303FE7FF23F9E74478811CCD
:10CC4000002C08BF4FF48074204600F06BFD0023D9
:10CC5000E01D8BF80130C00801305EE043789E494A
:10CC600003F003020132C3F380030A774B770023FA
:10CC700004E7FF2302E701240023A0464FF4804B82
:10CC80004B7090F80190964D01F1020A861CB9F1A3
:10CC9000000F02D144EA08400EE716F8010B6A685B
:10CCA00010F03F0708BF402722F070626A606A6890
:10CCB00043B2002BABBF42F040726A606A60C5F8B5
:10CCC00010B0A8BFC5F814B05246314609F1FF397B
:10CCD0000093073700F058FD009BB9F1000F09D110
:10CCE0006A6822F070626A606A6842F040726A6044
:10CCF000C5F814B0002B08F10108B9BF0AEBD70A38
:10CD000004EBD70406EBD70608EBD708BFE7FF23F1
:10CD10004B704278811C01201AB9000440F00100D8
:10CD2000CAE60B78013013F03F0308BF40230733F6
:10CD3000DB085C1C013A21441844EDE7FF234078EE
:10CD40004B7089E74278644B1A74C178827842EA62
:10CD500001229A820279417942EA0122DA82002391
:10CD600060488BF80130A7E6431C03935A4B90F8B8
:10CD700002901B78C41C012B40F0F1814FF0000899
:10CD800046464046584BCD1C83F80080CDF80480C1
:10CD9000B9F1000F16D1012840F0B981002E00F042
:10CDA000C2814D4B504F9E8A0E2007A900F03AFEDB
:10CDB000022840F09D811EB13B78013E002BF3D04C
:10CDC0000220A4E1234613F8017BDFF80CA117F041
:10CDD000020F009300F01881002E43D007F01103DA
:10CDE000012BBAF814200FD1384607A9049200F09D
:10CDF00019FE022819D1049A22B13B4B013A1B7843
:10CE0000002BF1D0022080E016460E2007A900F08A
:10CE100009FE022808D1002EF4D0334B013E1B78C6
:10CE2000002BF2D00026EDE7002601286DD1079BEC
:10CE30001A0A2B706A701A0C1B0EAA70EB70002E67
:10CE400048D03B0645D53046DAF80C3008351A0A8A
:10CE500005F8043C05F8032C1A0C1B0E05F8022CEF
:10CE600005F8013CDFF870C017F01003BCF814A0FF
:10CE700007F0010264D0A178637843EA0123E178E6
:10CE800043EA0143217943EA01630493631D00935C
:10CE9000BCF8164052BBDFF840A0BAF8142007A92E
:10CEA0003846059200F0BEFD0228014632D1059AAF
:10CEB00022B10D4B013A1B78002BF0D0064B9A693A
:10CEC000079B1340049A9A4235D041F01001C8B232
:10CED0001BE030460435C5E788040020010004004B
:10CEE000000C0140010005008404002000213846A8
:10CEF00000F098FD02280AD1BAF1000F05D09F4B2F
:10CF00000AF1FF3A1B78002BF0D0009CEAE00128E0
:10CF1000C1D0FAE70128D1D1079ADAF818301340C6
:10CF2000049A9342CAD0002CC8D0944B013C1B7881
:10CF3000002BB2D0C2E70128E7D14FF000082AE069
:10CF4000002A33D0002EF8D18C4C0021384600F056
:10CF500069FD022809D1BAF1000F00F09E80237804
:10CF60000AF1FF3A002BF0D0CFE70128CDD13E06E1
:10CF700040F1AA804FF000080646814B0435DB687B
:10CF80001A0A05F8043C05F8032C1A0C1B0E05F8C8
:10CF9000022C05F8013C019B01330193774B1B7870
:10CFA000002BB2D1009C09F1FF39F1E6384607A900
:10CFB00000F038FD022809D1BAF1000FA5D06F4B5F
:10CFC0000AF1FF3A1B78002BF0D09EE701289CD194
:10CFD0003C060BD52A466A4BDB68190A02F8043B6B
:10CFE0006970190C1B0EA970EB701546079B043570
:10CFF0001A0A05F8043C05F8032C1A0C1B0E05F858
:10D00000022C05F8013C98E716B3BAF814200E205C
:10D0100007A9049200F006FD022809D1049A002A0B
:10D020003FF473AF554B013A1B78002BEFD06CE700
:10D0300001287FF46AAF079B04351A0A05F8043CFF
:10D0400005F8032C1A0C1B0E05F8022C05F8013C00
:10D05000A278637817F0200F43EA0223E27843EACC
:10D060000243227943EA026304F105020092079326
:10D07000434A03D00026012093618CE7968A384604
:10D0800007A900F0CFFC022809D1002E3FF43DAFE4
:10D090003A4B013E1B78002BF1D0002635E70128E2
:10D0A000FBD1390614D58046DAF80C3004351A0A5B
:10D0B00005F8043C05F8032C1A0C1B0E05F8022C8D
:10D0C00005F8013C002666E74FF00008064662E7D7
:10D0D0008046F7E723789A0708D5DF0606D401349F
:10D0E00009F1FF39B9F1000FF4D154E60534F7E73F
:10D0F00001280CD1079B04351A0A05F8043C05F8F1
:10D10000032C1A0C1B0E05F8022C05F8013C019BA0
:10D11000029A8BF80130039B8BF80200E31AA81ADD
:10D1200040EA0340C8E4B8F1000FF0D0144B134FAD
:10D130009E8A00210E2000F075FC0228E7D1002E07
:10D140003FF43EAE3B78013E002BF2D038E6237828
:10D15000990711D5DA060FD4013409F1FF39B9F175
:10D16000000FF4D1039B8BF80190E01A00048BF8B8
:10D17000029040F002009FE40534EEE784040020B2
:10D18000880400206D4C2378012B4FF0000340F001
:10D19000AB80DFF8ACA190F802808AF80030C37849
:10D1A0000A1D58EA0328009200F09C80077917F0C6
:10D1B000020615D1431DB045B4F814906ED100217C
:10D1C0000E2000F02FFC022801462CD1B9F1000FEF
:10D1D00029D09AF8003009F1FF39002BEFD07AE01E
:10D1E00017F0010137D14346DDF80090A8EB0306A4
:10D1F000CDF80090BBB1013B03D117F0010F18BF70
:10D200000E27A28A07A938460193039200F00AFC70
:10D2100002280146019B32D1039A22B19AF80000FC
:10D22000013A0028EED0009B029A8BF80160360A82
:10D230008BF802608BF80310981A2B799B075BBF61
:10D24000AB78EA7840F4802043EA02235CBF0133E4
:10D2500040EA834030E4A68A0021384600F0E2FB31
:10D260000228014608D1002EDDD09AF80030013E98
:10D27000002BF1D00026D6E70128B4D0FAE7012828
:10D28000D1D1079A09F8042B100A09F8030C100CE5
:10D29000120E09F8020C09F8012CA7E759781A7840
:10D2A00042EA0122997842EA0142D97842EA0162CF
:10D2B000079207A93846019300F0B4FB0228014603
:10D2C000019B0AD1B9F1000F05D09AF8002009F1AD
:10D2D000FF39002AEDD00221A5E70128A3D10433AC
:10D2E000013668E74146C5E703204B708B70CB7071
:10D2F000A3E7124B1B78012B0FD1C278837807A9C3
:10D3000043EA0223027943EA02434279002043EAD6
:10D310000263079300F086FB21E5FF2320E5FF234E
:10D320004FF001100B70FFF7BBBA002F7FF442AC37
:10D33000002A3FF43FAC48093BE400BF88040020CA
:10D3400084040020F8B503787F2B15D10C464FF0EC
:10D35000021604F8023B4578871C4D700DB9304623
:10D36000F8BD21463846FFF78FFA064407EB104711
:10D3700080B2013D0444F1E7BDE8F840FFF784BA0C
:10D380001FB56421344B00225961012133481A70C2
:10D3900098601A749A619983FFF752FA304B9A6930
:10D3A00042F004029A619A6902F004020092009A23
:10D3B0009A6942F008029A619A6902F008020192A1
:10D3C000019A9A6942F010029A619A6902F0100279
:10D3D0000292029A9A6942F020029A619B6903F0D4
:10D3E00020030393039B1F4B5A6822F470025A6078
:10D3F0005A6842F440125A604FF400521A615A6857
:10D4000022F070625A605A6842F040725A604FF4DB
:10D4100080421A615A6822F470225A605A6842F4B3
:10D4200000225A604FF480521A611A6822F00F02EB
:10D430001A601A6842F007021A6019615A6822F4E9
:10D4400070425A605A6842F440525A604FF4006287
:10D450001A6105B000BD00BF88040020404B4C009D
:10D4600000100240000C014000230422C0F81031DB
:10D47000C0F81431C0F80821C0F80C3170470346D9
:10D48000D0F80C0110B5B8B10138C3F80C01D3F8CD
:10D49000140103EB80140C6000F1800133F81110CB
:10D4A000013000F003001160C3F814010120D3F82B
:10D4B00008210132C3F8082110BD007800F17D0376
:10D4C000DBB28C2818BF012B8CBF012000207047D5
:10D4D000F8B50446D0F808010D4617461E4688B335
:10D4E0000846FFF7EAFF10B1012003F011FED4F85F
:10D4F0000831D4F81001013B402F3A46C4F80831F6
:10D50000A8BF4022294604EB80100BF0ADFBD4F8F5
:10D510001011284604EB8111FFF714FFD4F81031E5
:10D5200003F1800224F81200012004EB831201337E
:10D5300003F003033260C4F81031D4F80C31013326
:10D54000C4F80C31F8BD00002DE9F04F037887B026
:10D550000B70803B06460D460D2B00F2D580DFE8B0
:10D5600003F00717233944D3D3D354626C7486CAAB
:10D5700003F0E6FA0646FFF715F8C4B268702246D3
:10D580003146A81C0BF070FB04F58030023008E037
:10D5900004A805F08FF8072204A9681C0BF064FBAF
:10D5A0005B4807B0BDE8F08F002404A805F082F8BE
:10D5B0000422711C03A803940BF056FB039B04A8E0
:10D5C000049305F05DF8204605F088F801235148E2
:10D5D0006B70E6E73E21A81C06F026FE044610B15B
:10D5E000012003F09FFD6C70CEE7447802302146A5
:10D5F00006F008FE012003F095FD0123E0186B7092
:10D6000043EA004000F10110CBE701234B70407862
:10D6100020B903F0A3FD4FF00210C2E70128F8D0B3
:10D6200000234B70F7E701234B7004F0FDFF10B9A6
:10D63000022008F0E3FD3848B3E7407800F0ECFE44
:10D640000022364B68701A80E5E7344C218851B1CE
:10D65000334800F017FF00236870238018B1133897
:10D66000C0B20128E7D800F041FF6870E3E7DFF8B7
:10D67000ACB04478012003F05FFDBBF80030023607
:10D680009BBB94BB2146304600F0FCFE687024E052
:10D69000BBF800003146C0F50077474528BF474634
:10D6A0004844BAB201920BF0DFFABBF80030019A9D
:10D6B0001F44BFB2B7F5007FABF80070A8EB0208BB
:10D6C00016440FD34FF40071484600F0DBFEABF870
:10D6D00000A06870B8F1000FDAD1601C000440F0BF
:10D6E00001008FE785F801A0F4E7A0464FF0000A9B
:10D6F000DFF82C90EEE700234B70407810B901F072
:10D700001FFB88E70120FAE74FF0011049E700BF4F
:10D71000090001000200050002000100A804002029
:10D72000AC0E0020002829D04FF0000C144B70B52F
:10D73000144AD3F804E04FF480464FF40054634693
:10D740000138BCF1000F13D00CF1FF3CDD074CBFDA
:10D750001661566175465461013DFDD175461461EF
:10D76000013DFDD1013808D35B08BCF1000FEBD1BE
:10D770004FF0070C11F8013BE8E770BD704700BFA0
:10D7800088040020000C014010F03F0C08BF4FF04F
:10D79000400C0306F0B540F1A38014464FF400504E
:10D7A0004D4D4E4B696858610A46013AFDD19E685D
:10D7B0000A46C6F300373E461861013AFDD1BCF176
:10D7C000010F00F01A810A465861013AFDD19A68AA
:10D7D0000F461861013FFDD1C2F3003E4FEACE1E55
:10D7E000BCF1020F4EEA861E70D00A465861013A1B
:10D7F000FDD19A680E461861013EFDD1C2F3003298
:10D80000D201BCF1030F42EA5E0200F0F8800E463E
:10D810005861013EFDD19F680E461861013EFDD161
:10D82000C7F3003E4FEACE1EBCF1040F4EEA52028F
:10D8300000F0E8800E465861013EFDD19F680E461B
:10D840001861013EFDD1C7F3003E4FEACE1EBCF188
:10D85000050F4EEA520E00F0D8800A465861013A90
:10D86000FDD19E680A461861013AFDD1C6F3003623
:10D87000F601BCF1060F46EA5E0600F0CB800A46D0
:10D880005861013AFDD19A680F461861013FFDD1F8
:10D89000C2F3003E4FEACE1E4EEA560EBCF1070F11
:10D8A0004FEA5E0E14D00A465861013AFDD19A68DB
:10D8B00018610139FDD1C2F300324EEAC21EBCF13B
:10D8C000080C04F801EB7FF46DAFF0BD4FEA9E1E2B
:10D8D00084F800E0F0BD00BF88040020000C014087
:10D8E0004FF480444FF400524C4B013958684C4B74
:10D8F00011F801EF05461EF0010F0CBF5C611C61C1
:10D900005A61013DFDD105461A61013DFDD1BCF1D1
:10D91000010FDAD01EF0020F0CBF5C611C610546DE
:10D920005A61013DFDD105461A61013DFDD1BCF1B1
:10D93000020FCAD01EF0040F0CBF5C611C610546CB
:10D940005A61013DFDD105461A61013DFDD1BCF191
:10D95000030FBAD01EF0080F0CBF5C611C610546B6
:10D960005A61013DFDD105461A61013DFDD1BCF171
:10D97000040FAAD01EF0100F0CBF5C611C6105469D
:10D980005A61013DFDD105461A61013DFDD1BCF151
:10D99000050F9AD01EF0200F0CBF5C611C6105467C
:10D9A0005A61013DFDD105461A61013DFDD1BCF131
:10D9B000060F8AD01EF0400F0CBF5C611C6105464B
:10D9C0005A61013DFDD105461A61013DFDD1BCF111
:10D9D000070F3FF47AAF5FEADE1E0CBF5C611C618B
:10D9E00005465A61013DFDD105461A61013DFDD153
:10D9F000BCF1080C7FF47CAFF0BD2770F0BD52097C
:10DA00002270F0BD12092270FBE74FEADE0E84F8A7
:10DA100000E05FE7B6082670F0BD00BF8804002074
:10DA2000000C01402DE9F0434D4C8946637800F02D
:10DA30000101002B00F098804FF400554FF4804214
:10DA4000484B1A615D611D61002940F079815A617E
:10DA50004FF40051434A8707516111614FF48041EF
:10DA60004CBF116151614FF400513E4A460751616C
:10DA700011614FF480414CBF116151614FF400516D
:10DA8000384A0507516111614FF480414CBF116163
:10DA900051614FF40051430803EB9003034403EB3F
:10DAA000D003304A13F0010F4FF4804351614FF41B
:10DAB000804511614FF4005114BF13615361294B2C
:10DAC000227F596119615D61596119611D61596157
:10DAD00019615E68944626F070665E605E685E60FE
:10DAE0001D6122B1BCF1010C59611961FAD14FF4E9
:10DAF00000511C4B59619E68196159619F681961F9
:10DB000059619D68C7F30037C5F3003E4FEA8E0E9A
:10DB1000C6F300364EEA470E4EEA060EBEF1010F7E
:10DB2000196100F01F82142525FA0EF5ED0700F1AA
:10DB300036812132013A59611961FBD14FF480419C
:10DB40005A685FFA8EFE22F070625A605A68704618
:10DB500042F040725A6059611961BDE8F08300BF1C
:10DB600088040020000C01404FF480454FF400561B
:10DB70006368634A1F4615615661013FFDD1166116
:10DB80001E46013EFDD1002940F0D88055614FF47A
:10DB900000525B491D464A61013DFDD10A611A46AA
:10DBA000013AFDD14FF4804586074CBF0D614D61B0
:10DBB0004FF4005552491E4642084D61013EFDD1C9
:10DBC0000D611D46013DFDD14FF4804547074CBF17
:10DBD0000D614D614FF4005549491E4602EB90021C
:10DBE0004D61013EFDD10D611D46013DFDD14FF45A
:10DBF000804506074CBF0D614D614FF4005540490B
:10DC00001E4602444D61013EFDD10D611D46013DA0
:10DC1000FDD102EBD00212F0010F4FF480424FF41D
:10DC2000005514BF0A614A61354A194655610139E8
:10DC3000FDD1194615610139FDD14FF480411E46D1
:10DC400051615561013EFDD11E461561013EFDD178
:10DC500011611E465561013EFDD11E461561013E12
:10DC6000FDD1566826F070665660566856601161A0
:10DC700094F81CC0E646BCF1000F0AD01946556165
:10DC80000139FDD1194615610139FDD1BEF1010EF1
:10DC9000F4D14FF400551A4A194655610139FDD1A6
:10DCA0009668194615610139FDD11946556101394A
:10DCB000FDD19768194615610139FDD119465561A5
:10DCC0000139FDD1D2F80880194615610139FDD11D
:10DCD000C8F3003EC7F300314FEA8E0E4EEA410E04
:10DCE000C6F300314EEA010EBEF1010F00F0C18013
:10DCF000142121FA0EF1CE0724D40CF1210C01E0FD
:10DD0000000C0140194655610139FDD119461561D4
:10DD10000139FDD1BCF1010CF4D14FF480415368BD
:10DD20005FFA8EFE23F0706353605368704643F0D1
:10DD30004073536051611161BDE8F083156126E7BE
:10DD40001A6185E6667F002E52D0810745D4BCF16A
:10DD5000000F51D14FF48040516821F07061516043
:10DD6000516841F04071516050614FF4804121226F
:10DD70004FF4005477484161194644610139FDD19F
:10DD8000194604610139FDD1013AF5D14FF48042C1
:10DD9000704B5FFA8EFE70461A61BDE8F083657FB6
:10DDA000002D4CD0840745D4002A4BD14FF480413C
:10DDB0005A6822F070625A605A6842F040725A60A3
:10DDC00059614FF4804021234FF40051614A506162
:10DDD000013B51611161FBD1D8E721211C465561FE
:10DDE000013CFDD11C461561013CFDD10139F5D145
:10DDF000BCF1000F00F093814FF4005455491A46CE
:10DE00004C61013AFDD11A460C61013AFDD1BCF1D9
:10DE1000010CF4D14FF480444A6822F070624A60E9
:10DE20004A6842F040724A604C61002EAED08207D0
:10DE3000ACD49AE72124013C59611961FBD1002A35
:10DE400000F061814FF40051424B013A5961196170
:10DE5000FBD15A6822F070625A605A6842F04072F0
:10DE60005A604FF480425A61002D8FD087078DD4BD
:10DE7000A7E710F0020640F0F980BCF1000F0AD0CD
:10DE8000194655610139FDD1194615610139FDD198
:10DE9000BCF1010CF4D14FF4804E2E494FF0200814
:10DEA0004A684FF4005722F070624A604A6842F0B4
:10DEB00040724A60C1F814E0D9F8002000E052082E
:10DEC000D5074CBFC1F810E0C1F814E01D464F6102
:10DED000013DFDD11D460F61013DFDD1B8F10108A5
:10DEE0001644ECD14FF480411A4AF5074CBF11613A
:10DEF00051614FF40051174A1D465161013DFDD15A
:10DF00001161013BFDD14FF0010E07060AD5124BFE
:10DF1000124A1B681249A2FB03234A689B0CB2FBFE
:10DF2000F3F3E360237C83B14FF480424FF4005558
:10DF3000084960684A6102464D61013AFDD10246D6
:10DF40000D61013AFDD1013BF5D14FF48042014B07
:10DF500021E700BF000C0140D401002083DE1B43F9
:10DF6000001000E010F002054AD11AB1013A5961DF
:10DF70001961FBD14FF480476F4A202153684FF459
:10DF8000005623F070635360536843F0407353604E
:10DF90005761D9F8003000E05B0813F0010F14BF9F
:10DFA00017615761013956611D441661F4D14FF470
:10DFB0008042614BEF074CBF1A615A614FF4005227
:10DFC0004FF0010E5C4B5A611A6106060AD55B4B95
:10DFD0005B4A1B685B49A2FB03234A689B0CB2FBAC
:10DFE000F3F3E360237C002BAFD04FF480404FF479
:10DFF0000051514A5061013B51611161FBD1A4E7CD
:10E00000002720253E465961D3F808C0013DCCF3D6
:10E01000003C66444FEACC7C19614CEA5707F2D1C8
:10E0200059619D68196186EA153616F0010F14BF13
:10E030004FF0080E4FF0010EB9F1000F01D0C9F8F2
:10E04000007032B14FF400513B4B013A59611961F4
:10E05000FBD1394B5A6822F070625A605A6842F01C
:10E0600040725A604FF480425A61AEE74FF00008A8
:10E070004FF0200E4746194655610139FDD1916890
:10E080001E461561C1F30031013EFDD10F44BEF1C2
:10E09000010E4FEAC17141EA5808ECD119465561A9
:10E0A0000139FDD191681561013BFDD187EA113736
:10E0B00017F0010F14BF4FF0080E4FF0010EB9F129
:10E0C000000F01D0C9F80080BCF1000F0ED04FF452
:10E0D00000556268184913464D61013BFDD1134656
:10E0E0000D61013BFDD1BCF1010CF4D1124B5A681A
:10E0F00022F070625A605A6842F040725A604FF4DF
:10E1000080425A6101E74FF480415A6822F0706200
:10E110005A605A6842F040725A60596136E64FF4CC
:10E120008041536823F070635360536843F0407339
:10E13000536051612AE600BF000C0140D401002069
:10E1400083DE1B43001000E0BFF34F8F0549064BF1
:10E15000CA6802F4E0621343CB60BFF34F8F00BF85
:10E16000FDE700BF00ED00E00400FA0500224FF0DB
:10E17000FF334FF0010CF0B5DFF83CE08A4203DBDF
:10E1800093FAA3F0C043F0BD07250024865C0CFA87
:10E1900005F716F0010F47EA040718BF3C46013D9A
:10E1A0004FEA5606F3D283EA04631C0E5EF824405D
:10E1B000013284EA0323E1E7888C010800234FF051
:10E1C000010CF0B5DFF844E0C04390FAA0F09342B0
:10E1D00003DB90FAA0F0C043F0BD07250024CE5C1D
:10E1E0000CFA05F716F0010F47EA040718BF3C4682
:10E1F000013D4FEA5606F3D280EA0460040E5EF851
:10E200002440013384EA0020E1E700BF888C010844
:10E2100000F07CBB0023F0B50D46164689B0CDE971
:10E2200006330593441C06AF05AB01934FF480738E
:10E230003146009328462346029707AA00F09AFF2A
:10E240000628F1D801A353F820F000BF69E20008C6
:10E2500093E2000879E2000829E20008BDE2000824
:10E26000A9E20008A9E20008069A1AB12146059819
:10E2700000F050FA09B0F0BD069A1AB9079BF61AD9
:10E280001D44D1E72146059800F044FA0028F5D056
:10E29000F0E7069A0AB91320ECE72146059800F04A
:10E2A00039FA0028E6D1F6E7053818BF01204FF407
:10E2B000B072034904F002FB1620DBE71520D9E712
:10E2C0004E92010810B540F20112002104460AF0F6
:10E2D000A2FC00F029FF00232370BDE8104000F0ED
:10E2E000E7B900F0E5B908B504F084FB431E5842D5
:10E2F000584108BD08B500231A4600F015F900384A
:10E3000018BF012008BDF0B5044690F830000F4654
:10E310002F28154685B02DD8C0F13006964228BF6B
:10E320001646204432460AF09FFC94F830103144DF
:10E33000C9B22F2984F8301027D9002320461A4665
:10E3400000F0F2F820B3002203AB0093114602ABB9
:10E3500000F028F9D0B90298214694F83020606383
:10E3600000F0D8F990B9636B94F830203744134427
:10E37000AD1B63632A463946606B00F0CBF928B9C0
:10E38000636B14202B44636300E0002005B0F0BDF4
:10E390001C20FBE708B507F001FD054B62221B6856
:10E3A00004491B1A58425841BDE8084004F086BA97
:10E3B000AC0400204E92010800F0A8BAF8B5064659
:10E3C0000F460024074D230139463046EB58984745
:10E3D00030B9631C022B4FF00104F4D10320F8BDC7
:10E3E000E0B2FCE70000002010B500F108040322B1
:10E3F000214607480AF026FC40B103222146054881
:10E400000AF020FC002814BF0320012010BD00BF2B
:10E41000809201088492010870B5144C0646257854
:10E4200035B185220020124904F048FA022070BD5F
:10E43000012801D98B22F5E707F0B0FC0D4B4FF412
:10E440008272186029460C480AF0E5FB01230B484C
:10E4500023700B4B00EB0610186043680648984782
:10E460000028E4D003232370E1E700BFB4040020B8
:10E470004E920108AC040020B804002000000020E7
:10E48000B004002070B5154D04462B780E46012BC4
:10E4900007D0A4220020124904F010FA02242046DA
:10E4A00070BDFFF777FF0F4B21461B6832469B6814
:10E4B0000D4898471328044602D102232B70EEE73B
:10E4C000142800D040B92878B222431E584204498B
:10E4D000584104F0F3F9E2E70323EFE7B404002026
:10E4E0004E920108B0040020B804002010B5094C79
:10E4F000207828B9C022084904F0E0F9022010BDB4
:10E50000FFF748FF054B06481B68DB689847002368
:10E510002370F4E7B40400204E920108B0040020F8
:10E52000B80400200020704730B505461C462F294E
:10E5300094BF0020012085B04722174904F0BEF99E
:10E540000C2205F1200101A80AF08EFB0CB9134B37
:10E550001C70134B029A9A420ED103F17F730198FB
:10E5600003F5823303F28713984212D0FC3BC31A9F
:10E570005842584105B030BD284604F027FA28B16A
:10E5800014B90122054B1A700320F3E7002CF1D0D7
:10E59000FAE70220EEE700BF88920108BC050020E0
:10E5A000089996972DE9F843DDF8208006469946AC
:10E5B00013B1B8F1000F08D1712200202F4904F0E7
:10E5C0007DF902273846BDE8F883002401281C6045
:10E5D000C8F8004015D112B1B1F1006F41D14FF030
:10E5E0000065274B1C68002704F026F808B9012EA7
:10E5F00042D0002FE6D1002C39D1B82220461F4945
:10E60000DDE7032830D11F4B1C696CB304F10C000B
:10E610004278037843EA0223827843EA0243C278CD
:10E6200053EA02620DD14379057945EA03258379DE
:10E6300045EA0345C37955EA036502D1124B1C68CC
:10E64000D1E7417A037A43EA0123817A43EA01431D
:10E65000C17A43EA0163012B01D01430D8E7154693
:10E66000ECE725461A27BFE725461C27BCE7C9F873
:10E670000050C8F80040A5E71C27A3E788920108CE
:10E6800080A20108F4A10108E8A60108032808B542
:10E690000B4607D10549096921B111461846FFF714
:10E6A00041FF08B9002008BD1D20FCE7F4A10108C6
:10E6B00038B50F4D2C783CB1DA2200200D4904F01A
:10E6C000FDF80224204638BD3022FF210A480AF016
:10E6D000A2FA01232B70094B1C70094B1C60094BDB
:10E6E0001C60094B1C60094B1C70094B1C70E9E74E
:10E6F000CD05002088920108CE050020CC05002021
:10E70000C8050020C4050020C0050020BE0500206B
:10E71000BD0500202DE9FF476F4E154632780446AF
:10E72000012A0F4608D00020EF226C4904F0C6F8F9
:10E73000022004B0BDE8F087694B197821B9694916
:10E740001A70086068490860DFF8A08198F8003006
:10E75000002B6BD1644A13685919A34211605BD135
:10E76000DFF88CA1634BDAF800003946C0F13009BC
:10E77000A94528BFA94618444A460AF075FADAF8AE
:10E7800000004F4448442F28CAF80000A5EB0905B3
:10E790004C4447D9A0F130035842584140F211127D
:10E7A0004E4904F08BF84F4A01231268DAF8001042
:10E7B0005048FFF7B9FEDFF8409102AB494989F8AC
:10E7C000000000930122096803ABFFF7EBFE30BBAA
:10E7D00003F042FF38B1464B46491A6899F80000E9
:10E7E000FFF754FFD0B998F800004FF49A7280F008
:10E7F00001003A4904F062F8029800F05BF970B940
:10E80000012388F800303A4B3A491A68354B1868AA
:10E8100000F0B4F950B102E00320CCE71D2003233F
:10E82000337086E798F80030002BECD198F8003070
:10E8300033B12A463946204600F0A0F90028EED12F
:10E840002D4B1B78022B43D0032B03D0012B41D03F
:10E8500000206EE7294B187800283FF46AAF284B58
:10E86000186900283FF465AF00F10C025178137865
:10E8700043EA0123917843EA0143D17853EA0163E3
:10E880000BD15179137943EA0123917943EA01438A
:10E89000D17953EA016002D14BE79C420CD3537902
:10E8A000107940EA0320937940EA0340D37940EAA3
:10E8B00003608442034601D91432D7E700283FF4AD
:10E8C00038AF2C449C42C3D302231320337030E76B
:10E8D0000C4BF6E70C4BF4E7CD05002088920108BD
:10E8E000BD050020C4050020C0050020BE05002095
:10E8F000C8050020CE050020CC050020BC05002066
:10E90000F4A1010800FC010800C0000810B50E4B7E
:10E910001C783CB9204640F26B120C4903F0CEFF44
:10E92000022010BD00221A70094B187808B100F0BF
:10E93000BDF9022CF5D0074B1B78032BF1D0002832
:10E9400008BF2520EDE700BFCD0500208892010813
:10E95000BE050020CC0500202DE9F041DFF8408005
:10E96000044698F800300F4E0F4FBBB90F4B32687A
:10E970001B680F499B68386898470123054688F84B
:10E980000030FF2132680A480AF045F9336828460A
:10E99000B4FBF3F45C433C60BDE8F0810025F0E794
:10E9A0001A06002010060020140600200006002091
:10E9B0001C060020F8B5374E054633685B6998475A
:10E9C000336807469B6928469847044607B140B913
:10E9D00040F235120020304903F070FF0224204637
:10E9E000F8BDB7F5806F8CBF002001204FF49D72F9
:10E9F000294903F063FF4FF48060B0FBF7F07843E0
:10EA0000A0F580635842584140F23B12224903F07E
:10EA100055FFA7428CBF002001204FF49E721E4973
:10EA200003F04CFFB4FBF7F007FB1040B0FA80F0A6
:10EA300040F23D124009184903F040FFB5FBF4F0E5
:10EA4000164BB4F5806F04FB00F01C6028BF4FF438
:10EA50008064134B134F18603368134D1B6A386082
:10EA60002C6033B19847044618B133685B68984707
:10EA7000B5E70E4B1B7833B133683868DB689847CD
:10EA800004460028F1D1FF212A6809480AF0C3F89A
:10EA90000024A4E700060020BC920108080600201C
:10EAA000140600200C060020100600201806002086
:10EAB0001C060020F8B5254E0446357835B14722AE
:10EAC0000020234903F0FAFE02242AE000282AD07D
:10EAD000436843B3836833B3C36823B3036913B391
:10EAE000436903B38369F3B1C369E3B14FF480624F
:10EAF000FF2118480AF08FF80122174B1A70174BA4
:10EB00001D70174B1D60174B1D60174B1D60174B79
:10EB10001D60174B1D60174D23682C6098470446F5
:10EB200018B12046F8BD4D22CAE7134B1B784BB9EC
:10EB30002B681B699847074620B12B683C465B68E9
:10EB40009847EEE701233370EBE700BFFE05002096
:10EB5000BC9201081C0600201A060020190600209D
:10EB600014060020100600200C06002008060020D5
:10EB70000406002000060020180600202DE9F74FAB
:10EB8000404D834695F800800E46B8F1010F1446BB
:10EB900008D000207B223C4903F090FE022003B005
:10EBA000BDE8F08F394F3A7852B9FFF703FF10B143
:10EBB00002232B70F3E7364A87F80080C2F800B0D2
:10EBC000DFF8D080324FD8F800103A68BBFBF1F084
:10EBD000B2FBF1F248434A43904204D05846FFF753
:10EBE000BBFE0028E4D1DFF8B0A03A68DAF80010E4
:10EBF000BBFBF1F0B2FBF1F248434A43904236D1FD
:10EC0000DFF89890D9F80020D8F800100A445A4547
:10EC100004D85846FFF7A0FE0028C9D16CB3204B9A
:10EC2000DAF800101A680A445A4504D85846FFF723
:10EC3000C1FE0028BCD1D9F80000D8F80020194B3B
:10EC40000244A2EB0B02A24228BF2246ABEB00001B
:10EC50003146184401920AF007F8019A1248B2FAB4
:10EC600082F14909017093441644A41ACAE7584630
:10EC7000FFF7A0FE0028C3D09AE72046C7F800B0EF
:10EC80008DE700BFFE050020BC9201081906002098
:10EC900004060020100600200806002014060020AC
:10ECA0000C0600201C0600201A06002070B5194E24
:10ECB000307828B9CC22184903F000FE022070BD3C
:10ECC000012824D10020FFF747FE0446134B1B68A0
:10ECD0005B6898474FF480620546FF21104809F0B1
:10ECE0009AFF01220F4B1A7000230F4A9D4214BF56
:10ECF0002846204613700D4A337013600C4A136087
:10ED00000C4A13600C4A13600C4A1360D7E70024C6
:10ED1000DCE700BFFE050020BC92010800060020D1
:10ED20001C0600201A0600201906002014060020E8
:10ED3000100600200C060020080600200406002013
:10ED400010B5044603F0CEFB014B1C7010BD00BF94
:10ED5000180600204FF4806070470000024B1878BE
:10ED6000431E584258417047370E002008B50B4BE0
:10ED7000187828B983220A4903F0A0FD022008BDB3
:10ED80000020187004F0F6FE28B9064B1B78834269
:10ED900008BF2520F3E71F20F1E700BF370E002052
:10EDA000F0920108360E002038B5174D2C783CB192
:10EDB00062220020154903F081FD0224204638BD5F
:10EDC00022462146204604F0D3FED0B9104B4FF422
:10EDD00080621C700F4B21461C700F4B0F481C703B
:10EDE0000F4B1C600F4B1C600F4B1C700F4B1C60BB
:10EDF0000F4B1C600F4B1C6009F00DFF01232B70A3
:10EE0000DCE71E24DAE700BF370E0020F09201088D
:10EE1000360E0020350E0020340E00201C0A002083
:10EE2000300E00202C0E0020280E0020240E002082
:10EE3000200E00201C0E00202DE9F0415B4D044601
:10EE40002B780E46012B08D0A2220020584903F04F
:10EE500035FD02242046BDE8F081C0F309033BB133
:10EE6000AB220020524903F029FD02232B70F0E76A
:10EE7000B2F5806F02D3C2F3090008B1B222F0E705
:10EE8000B2F5806F02D0B9224949ECE7494B1B78B3
:10EE90007BB9494B187808B9C122F5E7474B1B6885
:10EEA000A34204D8464A12681344A34201D8C72299
:10EEB000D7E7444A137843B1434B44491B68096878
:10EEC0000B44A34201D0CF22CBE7414B4149E31889
:10EED0008B4203D8022320242B70BBE701234FF47D
:10EEE00080671370384B1C60384B1F6004F1784307
:10EEF000B3F5404F53D2384ADFF8E080121BBA42D4
:10EF000028BF3A463146D8F80000FFF757F9344B8E
:10EF1000C8F800009C4206D83A463146314809F00C
:10EF2000A3FE002496E7304B9C4207D03246394678
:10EF3000204601F0EAFD0028F3D0CBE796F8FD2348
:10EF400096F8FC3343EA022396F8FE2343EA024391
:10EF500096F8FF2343EA0263984222D132463946AB
:10EF6000204601F0D2FDF0B94FF0006001F0C4FD81
:10EF700098B939464FF000601A4A01F0C6FD041EE8
:10EF800018BF0124640101F021FE0122174B1A7001
:10EF9000002CC6D002232B705CE71024F3E7232457
:10EFA000F8E72724F6E72024F4E700BF370E002017
:10EFB000F0920108350E0020340E0020300E0020A3
:10EFC0002C0E0020280E0020240E0020200E0020F1
:10EFD000FF43FFF7FE3F0100FCBF00081C0E0020AE
:10EFE000FF0300081C0A002000BC0008360E0020A9
:10EFF0004FF480607047000070B52B4D04462B78AD
:10F00000012B06D0FF220020284903F057FC0220E4
:10F0100070BDC0F3090040B140F20712002023493F
:10F0200003F04CFC02232B70F1E7214A137853B113
:10F03000204B21491B6809680B44A34203D04FF4BD
:10F0400087721A49ECE704F17843A3F54041B1F522
:10F050009E3F03D2022321202B70D9E701214FF4D8
:10F0600080661170134AB3F5404F1460124A16605F
:10F0700014D2B4F1006F20460BD101F03DFD88B9E8
:10F08000314620460D4A01F040FD0028C0D0202026
:10F0900005E001F031FD0028BAD0DBE72320022390
:10F0A0002B70B5E71020FAE7370E0020F092010828
:10F0B000340E0020300E00202C0E002000C000086E
:10F0C000F8B5154D2B78012B07D040F237120020F0
:10F0D000124903F0F3FB0220F8BD114E337843B11F
:10F0E00040F23D1200200D4903F0E8FB02232B7093
:10F0F000F1E74FF000640B4F2046FFF77DFF18B19A
:10F10000022322202B70E7E704F58064BC42F3D190
:10F1100001233370E0E700BF370E0020F0920108B2
:10F12000350E002000C0000838B52522002109480E
:10F1300009F071FD0023084A08491370084C09487A
:10F14000094D0A4A0B600A492B7023700370137033
:10F150000B8038BD480E0020420E0020440E0020D7
:10F16000410E0020400E00203F0E00203E0E0020E9
:10F170003C0E00202DE9F04F85B089460292002216
:10F18000B24DDDF840A0297804460193CAF800206A
:10F1900000EB0906E9B103783A2B19D01346DFF8E2
:10F1A000B0B2FF210E9A0198039309F034FDDAF80A
:10F1B0000000DBF800100F9B091A1960361B029B38
:10F1C000A9EB06061E60039B184605B0BDE8F08F4C
:10F1D0002A70A04B1B78002B40F09480DFF870B2AF
:10F1E000B4423DD09C4D9D4FDFF8748223E00A2B42
:10F1F0001ED0397898F80020B9B313F0100F03F03F
:10F200000F0303F1090000F00F0008BF0346A85CDC
:10F210000343AB5495F800C00132D2B20CF1040E96
:10F22000964588F800202DDBB1FA81F14909397043
:10F230000134A64212D023780D2BF9D03A2BD6D127
:10F2400025220021284609F0E6FC0023854A0134E6
:10F25000A64213703B7088F80030ECD1DAF8003029
:10F260000E9AD31A0E9300239BE7242ADCD813F0BE
:10F27000100F03F00F0303F1090008BF03461B0141
:10F28000AB54D1E7012362461846285C0133DBB258
:10F2900010449E45C2B21846F7DA002A40F0CF80EB
:10F2A000704B1A78002ABFD101221A70AB786A78A5
:10F2B00042EA032252BA92B2EB78100A6A70A8703E
:10F2C0000D2BB1D801A050F823F000BF49F300087E
:10F2D000A3F3000869F3000829F20008BFF300084F
:10F2E00029F2000829F2000829F2000829F2000892
:10F2F00029F20008AFF3000829F2000829F20008FB
:10F3000049F30008544D00232946019F514A3846CD
:10F31000137011F8042B09F0A7FC2978DAF80030F3
:10F32000DFF82CB10F440B440197CAF80030DBF82A
:10F3300000206878AD786FF30F0240EA05200243A1
:10F340000A44CBF800204BE7474B1B88002B50D0DA
:10F350004649098899424CD045490988994248D084
:10F3600001233A4A137079E70E9BDAF80020FF2157
:10F370009A1A019809F04FFCDAF80010DBF8002027
:10F38000331B521A0F99A9EB03030A60029A136008
:10F390006A792B79120142EA03320223CBF800206A
:10F3A00012E70E99DAF800208A1A0E92F9E66A79C5
:10F3B0002B7943EA02232C4A5BBA138034E70E9B75
:10F3C000DAF80020FF219A1A019809F024FCDAF8F3
:10F3D0000010DBF80020331B521A0F99A9EB03032E
:10F3E0000A60029A13606A792B79120442EA036276
:10F3F000D3E7DBF800100B0C1B04134399423BD1FD
:10F400000023144962460B7001981A4909F02CFC3C
:10F410002A78019B697813440193DAF80030134489
:10F42000CAF80030A878DBF8003041EA00216FF319
:10F430000F030B4313443978CBF80030F4E60E9AEF
:10F44000DAF80030D31A0E930423AAE63E0E002009
:10F45000440E00203F0E0020480E0020420E0020E7
:10F46000410E0020400E00203C0E0020380E0020EF
:10F470003A0E00204C0E00200123054A013413707F
:10F480000E9ADAF80030D31A0E93022389E600BFF1
:10F490003F0E0020024B0021186806F039B800BF6B
:10F4A000740E0020014B186806F046B8740E002058
:10F4B00008B506F073FC064B40F269121B6805495B
:10F4C0001B1A58425841BDE8084003F0F7B900BF85
:10F4D000700E00202593010838B5104C104D0FCD4B
:10F4E0000FC40FCD0FC495E8030084E8030000F0BB
:10F4F0002DFB0C4801F04EF901F0E8F84FF40072D2
:10F50000094B1860094B400A1A600122084B1A6027
:10F51000084B094A1860094B1A6038BD800E00205C
:10F52000A8A201082DF70008182C0020142C002098
:10F53000102C00200C2C0020AC0E0020082C0020E9
:10F540007047000010B50446FFF7A4FF054B3CB11F
:10F550001A780AB902221A70BDE81040FFF7A2BF5C
:10F560001C70F9E77C0E002008B5FFF793FF074BEE
:10F570001978074B1A788A4203D1022A04BF012264
:10F580001A70BDE80840FFF78DBF00BF7D0E002058
:10F590007C0E00202DE9F047064613380128444C24
:10F5A00094BF002001204FF43A72424903F086F9DB
:10F5B00094F82030032B07D1BDE8F0474FF43B729D
:10F5C00000203C4903F07AB92368002B4CD0A56990
:10F5D000E269AA4248D325B16568A268AA1A5542D1
:10F5E000554194F8268084F82550002B3ED194F89C
:10F5F0002790B9F1030918BF4FF00109002D38D049
:10F6000094F82470236994F823A0013333D0606800
:10F6100040F20A32013018BF0120264903F04EF9AA
:10F62000626823699B1A6269B2EB432F8CBF012386
:10F63000002316B3032384F8203094F82030032BE2
:10F640000BD194F821302BB1FEF750FF002384F842
:10F65000213006B13046184B1870B8F1000F25D193
:10F66000BDE8F047FFF780BF0025BAE74FF001097A
:10F67000C4E72F46C6E70023DBE7B8F1000F0AD046
:10F680003BB987F00107BF00FFB2994518BF3E465E
:10F69000D0E70626CEE71AEA050FCBD10FB1022339
:10F6A000C9E7B9F1000FC8D00123C4E7BDE8F0876E
:10F6B000800E002025930108A80E002030B4194CBC
:10F6C00094F82050032D06D130BC40F235220020A2
:10F6D000154903F0F3B8256805B92060A06801302A
:10F6E00094F8270008BFA1600328A06908BF84F828
:10F6F0002730904207D9E069904204D91AB103201B
:10F7000030BCFFF747BF481C02D0A0688842F6D142
:10F71000032B03D094F827109942F0D10020A26166
:10F72000EEE700BF800E0020259301082DE9F0418F
:10F73000324C1D4680460F46164600F087FA94F874
:10F740002030032B40D0022F15D12468B4423BD186
:10F75000284601F011F80646284600F0E7FF054666
:10F760004046FEF741FE3246034629462046BDE8A4
:10F77000F041FFF7A3BFCFB94046FEF735FE03289F
:10F7800022D0284601F003F883071DD44046FEF737
:10F790002BFE0746284600F0EFFF0446284600F0FF
:10F7A000C5FF3B46014622463046E0E7012F0BD11C
:10F7B0002368B34208D194F822303BB100234FF0C4
:10F7C000FF322360A260A361BDE8F0810C4D0FCD34
:10F7D0000FC40FCD0FC495E8030084E80300FFF7C2
:10F7E00059FE084B1A78012A04D1074A1278022AD6
:10F7F00008BF1A70BDE8F041FFF754BE800E00202C
:10F80000A8A201087C0E00207D0E0020F8B5404E15
:10F81000404C0546FFF74CFEFFF73CFE327823785C
:10F820009A4203D1BDE8F840FFF73CBE40F2F9121E
:10F830000120394903F042F83378022B45D1374B88
:10F8400093F82030012B54D008D9023B012B05D965
:10F8500040F20B220020304903F030F84FF4FA73E5
:10F860004EF65F202E4A1168814203D80D4499421A
:10F870001560D7D925783778012D08BF0223357058
:10F880004FF0000608BF23701660FFF70BFE022F33
:10F8900016D1224C94F82030032B05D0012330469A
:10F8A00084F82630FFF776FE94F8200040F211121B
:10F8B000C31E58421849584103F000F800F064FA9A
:10F8C000012D1CD9022D1ED0F8BD23B92378022B9F
:10F8D00008D10023C4E7012B04D12378022B0BD0DD
:10F8E000002BF6D040F21B2200200B4902F0E6FF6D
:10F8F000EFE744F62063B3E740F6C413B0E7002215
:10F90000084B1A60E0E7FFF7E7FD0122054BF8E737
:10F910007D0E00207C0E002025930108800E002023
:10F92000780E0020202C002008B5FFF7C1FD014B08
:10F93000187808BDA80E002008B506F02FFA094B6C
:10F940001860002005F0D2FD074B1860FFF7C4FDDA
:10F950000023064A1370064A1370064A1360064ACB
:10F96000136008BD700E0020740E00207D0E002074
:10F970007C0E0020780E0020202C002070B504465C
:10F980000D461646FFF794FD064B1B684BB1012050
:10F9900001F0D2FB324629462046BDE8704000F017
:10F9A000FFBE70BD202C00202DE9F04105468846A1
:10F9B0001646FFF77DFD534B1B68CBB10022524B1F
:10F9C000524C1A6094F82030032B11D0012001F022
:10F9D000B3FB32464146284600F00EFF94F8203033
:10F9E000032B05D094F8223023B163689D423DD2A9
:10F9F000BDE8F08140467102FEF7E0FC03280746AF
:10FA00002DD094F8210040F28522414980F0010078
:10FA100002F054FF681C40F2862218BF01203C49C6
:10FA200002F04CFF63685A1C94F8272004BF2B4651
:10FA30006560032A0ED184F827709D420CD13846A8
:10FA4000FEF7EAFC48B90123E56084F8213084F828
:10FA5000223002E09D4207D00320FFF79BFD94F87F
:10FA60002230002BC4D0C0E7BA42E7E7E3689D42EA
:10FA70000AD0BDD22369B3F1FF3F08BF2B469D4298
:10FA800094BF25612361B3E7E369770203EB462363
:10FA90002E44E66094F82360E36126B10020BDE8BF
:10FAA000F041FFF777BD4FF431720120184902F0A1
:10FAB00005FF40F2C522164994F8210002F0FEFE2F
:10FAC00039464046FEF7DEFC1328054610D1FEF706
:10FAD0000DFD0123054684F8216084F8233084F865
:10FAE0002430FFF72DFD636928463B446361D6E768
:10FAF000142803BF0123354684F8243084F8246099
:10FB0000F1E700BF202C0020780E0020800E00209E
:10FB100025930108002203461146104618470000AD
:10FB200070B5064607480D46FCF73CFD04462DB16E
:10FB300036B902460349284609F096F8204670BDBA
:10FB40000024FBE7579301087047000037B52E4C9F
:10FB50002E4B204610F81F2F4FF08061002A08BF5F
:10FB6000184600F0DBFC2A48FFF7D4FF00220346CA
:10FB700014F8145F27482649954218BF204600F024
:10FB8000F7FE2548FFF7C6FF002203462249234817
:10FB900000F0EEFEFFF7C8FE40B12148FFF7BAFFC4
:10FBA000002203461E491F4800F0E2FE41211E4B81
:10FBB0001E4A1F4802F024FC58B11E48FFF7AAFF56
:10FBC0001C49034600221C4800F0D2FE002100F030
:10FBD000ABFD4FF00063009303F5404301930098A1
:10FBE0004FF48062019908F0EDFF044640B91348D4
:10FBF000FFF790FF224603461049114800F0B8FE77
:10FC0000FFF7A2FF03B030BDF4A10108C3930108C0
:10FC1000FDFE0008CF93010861020108DB93010893
:10FC2000C1FF0008E7930108B0100020B2100020C7
:10FC3000B4100020F900010864A3010821FB0008AA
:10FC4000F39301080020704700207047F7B507467E
:10FC50000C46FFF7F7FF20B904F002F918B1022CA7
:10FC60000AD103B0F0BD04F003F90028F7D102F087
:10FC7000E3FC0028F3D1F4E7002C6CD101233846D3
:10FC80000DF107018DF80730FFF7DEFFF8B94FF0EF
:10FC9000FF35394E0B223846316808F093FF00B922
:10FCA00035790134102C06F10806F3D16B1C1AD0FB
:10FCB0000F2D49D8DFE805F008120B1B24282A2E47
:10FCC0003034363A3C404246012002F055FB9DF864
:10FCD0000730002BC5D0FFF747FCC2E7E222002027
:10FCE000264902F0EBFD00238DF80730EFE7244BA7
:10FCF0001C68236898472369984763689847E6E734
:10FD0000012002F079FCE2E70020FAE7012002F08E
:10FD100079FCDCE70020FAE7012002F079FCD6E765
:10FD20000020FAE7002002F0D1FBD0E70120FAE73B
:10FD3000012002F073FCCAE70020FAE7012002F07C
:10FD4000D1FBC4E70020FAE74FF4887200200B498A
:10FD500002F0B4FDBBE7012C83D10B2238460949E0
:10FD600008F030FF00287FF47CAF02F0C4FD03B040
:10FD7000BDE8F040FFF7F8BBE4A20108FF930108DB
:10FD8000E8A6010864A3010808B502F031FB30B110
:10FD9000FEF7DAF9044A13680133136008BD02F074
:10FDA0009BFB0128F6D1F3E7AC1000202DE9F04FC2
:10FDB000A5B004AE039088469146002180223046CB
:10FDC0002E9C9A4608F027FF3146631E7E3413F8B6
:10FDD000012F1AB1A34201F8012BF8D135462B7837
:10FDE000402B0ED05BB9AD1B53464A4641460398A3
:10FDF0000195009602F02EFD25B0BDE8F08F01358B
:10FE0000EDE76B78562B33D8412B01D8384C37E0CF
:10FE1000423B142BFAD801A252F823F0BFFE00088F
:10FE20000DFE0008D1FE00080DFE00080DFE0008C2
:10FE30000DFE0008C5FE00080DFE00080DFE0008BE
:10FE40000DFE00080DFE00087BFE00080DFE0008F8
:10FE50000DFE00080DFE00080DFE0008DDFE000886
:10FE60000DFE0008CBFE0008B9FE0008D7FE000812
:10FE7000623BDAB2142ACCD9C8E700F079FE044616
:10FE80002846FCF78FFB07462046FCF78BFB3B1808
:10FE9000023B2B4424AA9A42834627D9BA1EA91CA6
:10FEA000281808F09FFE5A462146284608F0DCFE36
:10FEB0002B78002B93D196E700F042FEDFE700F0AD
:10FEC00043FEDCE700F044FED9E700F045FED6E74C
:10FED00000F046FED3E700F047FED0E7054B064CA6
:10FEE00013F82A2F002A18BF1C46C9E73D447AE7B9
:10FEF0002E940108F4A1010834940108F7B50F46C7
:10FF0000F0B9114B4502560231462A460093384655
:10FF1000002302F0BEFC0D4B04462A4631460093F6
:10FF200003463846FFF742FF094B044400932A4634
:10FF300023463146384602F0ACFC204403B0F0BD05
:10FF40000029DED00020F9E76D9401083D950108F5
:10FF5000409501082DE9F7430A9C98460094054610
:10FF60000E4617464FF0020902F093FC124B3A4638
:10FF700031460093044608EB0003CDF80490284670
:10FF800002F068FC0B9B04443A4631460093284635
:10FF900008EB040302F07DFC084B044400933A464E
:10FFA00031462846CDF8049008EB040302F052FCD9
:10FFB000204403B0BDE8F0836D9501080C9601085C
:10FFC0002DE9F74F0E4615460446FFF7ADFC0746F0
:10FFD00000F076FD8046384600F086FD074654BBAB
:10FFE000284B64026D0222462946CDF80480009316
:10FFF00030460023FFF7AEFF234B83460093224693
:020000040801F1
:1000000003462946304602F044FC4FF00109DFF870
:100010007C80834408F1140A8FB9022201921C4AA1
:100020005B46009229462246304602F013FC5844B3
:1000300003B0BDE8F08F002ED2D00020F8E7D04505
:10004000EBD0B9F1000F0AD102230193114B2246E4
:10005000009329465B46304602F0FCFB8344FB07D5
:100060000BD5D8F800205B46009229462246304640
:1000700002F00FFC4FF000098344C7F3470708F173
:100080000408C9E76395010869950108D0A2010831
:100090000C9601087095010870B4049E044D054C3F
:1000A000002E18BF2C46049470BCFFF753BF00BF4E
:1000B0009BA10108739501082DE9F04186B003ACBE
:1000C00005460E4620460D999846174602F082FBDB
:1000D00000F118030DEB0300002300F80C3C0C9B0F
:1000E0003A4600933146434628460194FFF732FFD3
:1000F00006B0BDE8F08100002DE9F04F002487B084
:100100008846029438B9394B46021B785702012BB6
:1001100007D1374D09E00029F5D0204607B0BDE8EA
:10012000F08F022B334D18BF0025334B3246394632
:1001300000934046002302F0ACFB304B0446019391
:100140002F4B32463946009303464046FFF702FFE5
:100150002C4B04441B88324601932B4B39460093A9
:1001600040462346FFF7A8FF04444DB1274B3246D3
:1001700000933946234640460195FFF7EBFE0444C1
:1001800002A802F095F982460028C6D0029B002BF7
:10019000C3D01F4B3246009339462346404602F0F7
:1001A00078FB00254FF00A0B04440DF10C0904F113
:1001B0000A03B3F5007FB0D20A221649484608F078
:1001C00053FD029B484653F8251002F0EDFA2346F2
:1001D000324639464046CDE9009B02F03BFB0135F3
:1001E000EBB29A450444E2D897E700BFB010002074
:1001F00075950108809501088C950108B4100020C0
:1002000095950108B21000209A9501089F95010864
:10021000A6950108889001082DE9F0410024984630
:1002200047F6300305460E46174686B00D990DF188
:100230000E0003930494ADF814408DF8164002F0BC
:10024000B3FA03AB01930C9B3A4600933146434605
:1002500028468DF81640FFF77DFE06B0BDE8F08118
:100260002DE9F0460F46664B85B0550246023246F0
:10027000294600933846002302F00BFB614B0446ED
:1002800032462946009303463846FFF78FFD5E4B02
:10029000044432462946009338462346FFF786FD3C
:1002A000044402F0C1F9594B3246294601900093AB
:1002B00038462346FFF7F0FE044402F0BDF9544BE4
:1002C000324629460190009338462346FFF7E4FE64
:1002D000044402F0B9F94F4B32462946019000938D
:1002E00038462346FFF7D8FE044402F0B5F94A4BDE
:1002F000324629460190009338462346FFF7CCFE4C
:10030000044402F0F5F8454B32462946019000932B
:1003100038462346FFF7C0FE414B04443246294687
:1003200000933846234602F0B4FA3E4B044400934F
:100330003246234629463846FFF738FD044400F08C
:100340001FFC08B34FF0060A0DF108095246364962
:10035000484608F089FC354B32462946009338461A
:10036000234602F096FA044400F03AFD04220146C6
:10037000484602F059FA2346324629463846CDE926
:10038000009A02F067FA0444294B3246009329464A
:100390002346384602F07DFA044400F0F1FB58B1E0
:1003A00000F008FC234B0190009332462346294677
:1003B0003846FFF731FF044400F002FC1E4B324682
:1003C00029460190009338462346FFF725FF1B4B33
:1003D00004441B6832460193194B29460093384662
:1003E0002346FFF769FE174B044400933246234629
:1003F00029463846FFF7DAFC204405B0BDE8F08610
:10040000B19501080F9601081F9601082C96010866
:10041000379601084A9601085D9601087A96010808
:1004200087960108A196010892900108B9960108E3
:10043000CE9601083897010847970108AC100020B4
:1004400055970108639701087047704710B554022B
:1004500008462246002108F0DEFB204610BD0000C1
:1004600008B540B908464FF40072044908F0FCFB97
:100470004FF4007008BD0020FCE700BFD01500203D
:1004800008B540B908464FF40072044908F0ECFB87
:100490004FF4007008BD0020FCE700BFD01700201B
:1004A00083185B02B3F5806F70B506460D4614469F
:1004B00007D9002040F263220A4902F0FFF9002028
:1004C00070BD4FF400720021284608F0A4FB36B935
:1004D000054B28461A680549520108F0C5FB600221
:1004E000EEE700BF4A980108FC1000200D11002023
:1004F00043000133B3F5007F05D340F239120020E9
:10050000044902F0DBB9044A02F81010090AD15478
:10051000704700BF4A980108D01500202DE9F84F18
:100520004FF0000A8B46DFF868914FF4007200210B
:100530008046484608F06FFB564F4FF4007200218A
:10054000554808F068FBC02251465448C7F800A03F
:1005500008F061FB4FF480625146514808F05BFBA4
:10056000504B514A83F800A0504B514E514D524CC4
:100570001A6052494FF400724846C6F800A0C5F808
:1005800000A0C4F800A008F06FFB0BF5803141F229
:100590005A0B99F80C2099F80B3043EA0223B1FB6F
:1005A000F3F199F80D300BFB03F28A4267D94FF44F
:1005B000AB724349504602F081F999F80D300BFBBC
:1005C00003F1B1F5803F2CBF0A460846B1FBF3F1B9
:1005D0002CBF00200022490089F8130001F2FF110E
:1005E000000ADFF8B8A089F81400490A100A89F84F
:1005F000202089F8210089F81610100C090A120E23
:1006000089F8220089F8232089F8171030222D4913
:10061000504608F029FB99F8172099F81630012068
:1006200043EA022304222A60DAF808205B02CAF8AF
:100630001430CAF8203002EB4302DAF82C304FF6BF
:10064000FF711A442260F822134B38601A70FF229F
:100650005A70FFF74DFF3B68202201333B600023B7
:1006600019490F48336008F0FFFA0B2241460C4845
:1006700008F0FAFA336801333360BDE8F88F4FF6BB
:10068000917B0BFB03F28A429BD240F2591290E716
:10069000D017002000110020D015002010150020D8
:1006A0000D1100200C1100204B040108081100203E
:1006B000FC10002004110020F8100020ECA3010819
:1006C0004A980108BCA301089AA3010810B5144B6D
:1006D000DA7C197D52EA012206D0DC7A1B7B44EADF
:1006E00003245443204610BD93F8212093F8204062
:1006F00044EA022493F8222044EA024493F8232097
:1007000054EA026405D0DA7A1B7B42EA03235C4395
:10071000E8E740F289122046024902F0CFF8E1E70B
:10072000D01700204A980108C172704710B5427F67
:10073000037F43EA0223827F43EA0243C27F53EAF4
:10074000026311D0C27E0A49837E4C7B43EA0223B6
:10075000CA7A097B023B42EA012206490868B0FBDB
:10076000F2F004FB030010BD4FF0FF30FBE700BFC9
:10077000D0170020F8100020427F037F43EA0223B5
:10078000827FC07F43EA024343EA00607047C07A39
:1007900070470000014B1860704700BF081100202F
:1007A0002DE9F04789460446154600214846520285
:1007B00008F031FA00270F4E06F1C00A3846B36838
:1007C000844207EB53270ED3A7420CD9A7EB0408AA
:1007D000A84528BFA846201A42464946336898478C
:1007E0004444A5EB080515B10C36B245E6D1BDE889
:1007F000F08700BF101500202DE9F74F00270446B1
:100800008B46154638464FF00C0ADFF84C80DFF86F
:100810004C90D8F80020FBB29A4202D803B0BDE851
:10082000F08F0AFB03939E68844200EB56260DD39B
:10083000B4420BD2321BAA4228BF2A46201A59467C
:100840005B6801929847019A1444AD1A0137002D54
:10085000E4D03046DDE700BF041100201015002071
:100860007FB50378E52B10D07BB1202B0DD0461E31
:1008700000F10A0416F8015F102268460D4908F0DD
:10088000F3F9A5F16103192B02D8002004B070BD63
:100890001F2D01D8052DF8D16A4600231178A942F1
:1008A000F3D00133102B02F10102F7D1A642E1D1BE
:1008B0000120EBE77B9801082DE9F84F83185B02D4
:1008C000B3F5806F894607D9BDE8F84F4FF41F7222
:1008D0000020244901F0F2BFB0FA80F4224B6409F1
:1008E00003EB402B214F4FEA422A0BEB441601EB5E
:1008F0004415B4EB5A1F06D3524649465846BDE844
:10090000F84F08F0B1B920222946304608F05AF9CC
:10091000B0B10B222946304608F054F92B468046E8
:10092000324602212846D7F800C0E0472B78E52B55
:100930000AD12B46324601213046D7F800C0E047A5
:10094000013420362035D4E7B8F1000FF8D028461E
:10095000FFF786FF0028F3D02B46324600212846B9
:10096000EBE700BF4A9801080D1100200811002094
:100970002DE9F74F1D46DFF81C818A46914600900D
:10098000FFF76EFF40F29512434901F097FF98F888
:100990000C2098F80B3043EA022398F80D205343BB
:1009A0005F1E2F44B7FBF3F74DB33C4C4FF0000BE9
:1009B00026687A1E30465A4515D84FF6FF71FFF764
:1009C00097FD236801332360354A13681F2B18D91C
:1009D0004FF4D5720020304901F070FF002420460A
:1009E00003B0BDE8F08F411C89B20192FFF780FD92
:1009F0002068019A013020600BF1010BDBE72E46E5
:100A0000E2E7284C284904EB4314013313602046E5
:100A1000202208F029F90B222046009908F024F939
:100A200022482B0A026863772B0CA377330C2577B7
:100A300023752D0E1B0AA6760F2A4FEA1626E57798
:100A40006375E67602D94FF4DC72C3E7184B194997
:100A5000BAF1000F14BF55461D460C235343CD5029
:100A6000154D1944B9F1000F18BF4D464D6098F867
:100A70000C5098F80B30013243EA052398F80D50DA
:100A800002606B437B430D4A8B6013780133137014
:100A9000A5E700BFD01700204A98010800110020E8
:100AA000FC1000200D1100207AA301080411002081
:100AB0004D04010810150020490401080C11002004
:100AC000272808B503D8054B53F8200028B9002083
:100AD000F722034901F0F2FE024808BD14A60108FE
:100AE0008C9801080E96010827289ABF014B185CC4
:100AF00001207047ECA5010810B5EFF3108472B621
:100B000003F03AF884F3108810BD10B5EFF31084A9
:100B100072B603F04DF884F3108810BD00F17843ED
:100B2000B3F5003F09D201F1784101390144B1F533
:100B3000003F2CBF002001207047002070470000BC
:100B4000004870479B1A002000487047891A00200F
:100B500000487047631A002000487047421A00207E
:100B600000487047391A002000487047341A0020A6
:100B7000004870478E1A002000487047D0190020A6
:100B800008B50C210848FFF7C9FF50B14FF00063CA
:100B9000064A196A914205D1586A054BC31A584250
:100BA000584108BD0020FCE720000008939D939B5E
:100BB00008999697014B1868704700BFD41A002017
:100BC000014B1868704700BFD01A0020002370B591
:100BD000154E164D164C4BF6FC714FF0006033600D
:100BE0002B602360FFF79AFF30B14BF6FC714FF09A
:100BF0000060FDF7BBFA30600E490F48FFF78EFF2B
:100C000020B10C490C48FDF7B1FA28604FF480611F
:100C10000A48FFF783FF28B14FF480610748FDF7CA
:100C2000A5FA206070BD00BFD41A0020D01A0020A1
:100C3000CC1A0020FC3B010000C0000800FC0108A9
:100C40002DE9F041FFF7C2FF5A4803F015F905F00E
:100C500081FA052200210546574807F0DCFF2122D2
:100C60000021564807F0D7FF21220021544807F001
:100C7000D2FF09220021534807F0CDFF05220021B1
:100C80004D4807F0C8FF04240026DFF828814B4FA9
:100C9000B81958F8041B01F087FD013C064414F014
:100CA000FF04F6B2F4D1BC552646474FDFF8108159
:100CB00008EB040057F8041B01F076FD0136F6B28C
:100CC0002044042EC4B2F3D1002740493D4808F81F
:100CD000047001F069FD3B4BC0B21F5405F008FAE7
:100CE00032460146344807F0BFFF334B384E1F7180
:100CF000C5F30F33092B8CBF573330333370C5F333
:100D00000323092B8CBF57333033737001F0E4FB9E
:100D10000128C5F3031441D144F0080430222D4BBF
:100D2000092C1A704FF032025A704FF035028CBF06
:100D3000573430349A70B4703922002405F00F050E
:100D4000092D8CBF57353035DA70214631222248C3
:100D50001C71F570347107F05EFF17491E4807F0EB
:100D600062FF1B491C4807F05EFF14491A4807F050
:100D70005AFF1449184807F056FF1748FBF712FCB2
:100D8000C0B2164B421C52001A70032225465A70FC
:100D9000114AE1B2884206D8BDE8F08105F0FEF9BB
:100DA0000028B9D0BAE712F8011BDD709970013440
:100DB0000233EEE7E81A0020891A0020631A0020A7
:100DC000421A0020391A0020D81A00200899969754
:100DD000841A0020341A00209B1A0020D019002009
:100DE00008B5FFF7CDFE10B14FF00063986A08BD5B
:100DF0007047000010B50A4C0221206804F0E2FFA1
:100E0000084A1368591C1160074A5343B3F1553F10
:100E100005D820680121BDE8104004F0D3BF10BD03
:100E2000CC1E0020F81A0020ABAAAAAA704770476F
:100E30007047000038B50E4C237843B103F018F822
:100E4000054680B9022005F0D9F925700BE003F0C2
:100E50000FF848B1074B1B68DB69984718B905F0D4
:100E6000CDF90123237038BD2378002BFBD0E5E7B3
:100E7000FC1A0020E8A60108704770472DE9F84FDA
:100E800001F00AFA02F0BCFE002002F0DBFF8F4CFA
:100E9000002002F0E1FF002002F0E0FFFCF770FA12
:100EA00020884FF49472461E70428949704101F0C7
:100EB00005FDE36E03B1984705F080F9854B1B688B
:100EC00013B1DB6803B19847E468A50702D5012098
:100ED00000F090F9E40702D50120FDF731FFFFF79C
:100EE000AFFEFFF785FF07F0A1F901F0F5FAB0FAC0
:100EF00080F04009FEF726FB002007F0A5F901214C
:100F00000027754D0022754B7548297005F07CF857
:100F1000032105F08DF816244FF00B08B946BA46A8
:100F2000DFF8C0B14FF0FF32002140F63F2004F05F
:100F300079FF0646B00507D56B4B1B7813B101202E
:100F400003F016FD03F084FC710702D5022005F0C2
:100F500055F9F20613D5032005F050F9002002F0F0
:100F600089FF002007F070F9002002F06BFF0020DD
:100F700002F072FF002002F071FFFFF77DFFB30661
:100F800002D5032005F03AF9300501D501F0CDFB7B
:100F9000310701D5FFF771FFF20711D55A20FEF78F
:100FA00035FC2B78052B0BD8DFE803F07352736107
:100FB0000A030020287002F05DFF002007F044F9CA
:100FC000B307AFD5FFF736FFFFF732FF474B1B786C
:100FD00093B1474B1A78511E012963D8BAF1000F1B
:100FE00064D0012A03D1002240491A700A704FF0E0
:100FF000000A504602F026FF9BF8003083B13D4BBB
:101000001A78511E012954D8002F56D0012A03D135
:1010100000228BF800201A700027384602F01EFFCD
:10102000354B1A78002A3FF47DAF344A1178481EB8
:10103000012844D8B9F1000F44D0012902D1002180
:10104000197011704FF00009484602F005FF69E77A
:10105000B8F1000F02D0B8F10108B1D1012007F0BA
:10106000F3F8032316244FF000082B70A8E707F0CD
:101070000DF928B1012002F0FDFE02232B709FE73D
:101080000CB1013C9CD10024012002F0F3FE2C7035
:1010900096E707F0FBF80028EFD116244FF00B0875
:1010A00028708DE70023114A1370A0E74FF0010A62
:1010B0009FE700238BF80030AEE70127ADE7002261
:1010C0001A70BFE74FF00109BEE700BFF4A10108A5
:1010D0001EA0010814290020FE1A0020B4A6010851
:1010E000F50D0108FF1A0020FD1A0020011B002049
:1010F0002200002020000020001B002021000020F2
:10110000024B0421186804F05DBE00BFCC1E002015
:101110000122024B1A70024B18707047011B00200D
:10112000220000200122024B1A70024B18707047F7
:10113000001B0020210000200122024B1A70024BEC
:1011400018707047FF1A002020000020024B4FF457
:101150000061186804F036BECC1E0020014B1870E8
:10116000704700BFFD1A0020024B4FF40071186851
:1011700004F028BECC1E002008B5084A084B9A602F
:1011800002F086FE03F00CFD0021064A064804F03A
:10119000F3FD064B186003F017FDFEE700C00008E2
:1011A00000ED00E0C4A601087D0E0108CC1E002061
:1011B0004FF0FF3307B533206946CDE90033FCF724
:1011C000B1FA03B000BD0000094B5A6822F4700266
:1011D0005A605A685A605A6822F070625A605A68B7
:1011E0005A605A6822F470225A605A685A607047EE
:1011F000000C0140014B1870704700BFD81E002042
:10120000002310B5DCB2A24200D810BDDC0021FAE8
:1012100004F4C4540133F5E770B505460E46642462
:1012200031462846FCF7FEFB022803D1013C14F0AE
:10123000FF04F5D170BD13B504220C460146684683
:10124000FFF7DEFF69460520FFF7E6FF012802D021
:10125000002002B010BD0F2001A9FFF7DDFF01281B
:10126000F6D10E2001A9FFF7D7FF019B2360431E93
:1012700058425841EDE7042213B50C4601460DEBE8
:101280000200FFF7BDFF01460520FFF7C5FF01285B
:1012900002D0002002B010BD042221460DEB020056
:1012A000FFF7AEFF01460D20FFF7B6FF0128F0D192
:1012B00000210E20FFF7B0FF431E58425841E9E7D6
:1012C000014B1860704700BF2400002008B5FCF7F0
:1012D00057F8164B01205A6822F470025A605A6877
:1012E00042F440125A604FF400521A615A6822F0D8
:1012F00070625A605A6842F040725A604FF48042FD
:101300001A615A6822F470225A605A6842F4002224
:101310005A604FF480521A611A6822F00F021A6064
:101320001A6842F007021A60186108BD000C0140FB
:1013300008B5FFF749FF012008BD13B500F00C0008
:101340000C4640F0020001A9FFF766FF019B2360F5
:10135000431E5842584102B010BD0000082837B55E
:1013600005460C4603D10E4B1B688B4215D0042258
:1013700021460DEB0200FFF743FF014605F00C008C
:10138000FFF74AFF012803D1082D04BF044B1C605E
:10139000431E5842584103B030BD0120FBE700BF57
:1013A000D01E00201E210020FFF7D8BF37B504460D
:1013B0000D4604F065FF08B904F07F4004F0F00129
:1013C00001430820FFF7CAFF10B9002003B030BD69
:1013D00024B90E4B5A68AA42F8D05D60042229460F
:1013E0000DEB020004F00C04FFF70AFF014644F085
:1013F0000100FFF711FF0128E7D100210E20FFF7C0
:101400000BFF431E58425841E0E700BFD01E0020AA
:1014100038B504460D4600200549FFF7C7FF28B13F
:1014200029462046BDE83840FFF705BF38BD00BF5C
:101430005200002338B504460D4600200549FFF749
:10144000B5FF28B129462046BDE83840FFF713BF55
:1014500038BD00BF5200002337B504460D460020BA
:101460000849FFF7A3FF50B1204601A9FFF7E3FEAB
:1014700028B1019BE40004F01804E3402B7003B092
:1014800030BD00BF5000002338B504460D46002093
:101490000749FFF78BFF48B1E10001F01801204632
:1014A00005FA01F1BDE83840FFF7E5BE38BD00BFE1
:1014B000500000232DE9F74314468F188518391B77
:1014C00088462E1B0CB1B30706D1032C0AD8002581
:1014D000AC4244D1012014E03046FFF7BDFF78B1A3
:1014E000013CECE7C6F30905C5F58065AC424FF059
:1014F00000001F4938BF24F00305FFF757FF18B954
:10150000002003B0BDE8F083042231460DEB020059
:10151000FFF776FE01460520FFF77EFE0128EFD19A
:1015200000210F20FFF778FE0128E9D14FF00009D4
:10153000AF08013FB94508EB890108D30E20FFF73A
:101540006BFE0128DCD12E44A844641BBDE70F20AC
:10155000FFF762FE0128D3D109F10109EAE708EBA0
:1015600005017019FFF778FF01350028B0D1C7E7F2
:10157000520000232DE9F74314460F46A0EB010863
:101580003D4607EB08060CB1B30707D1032C0DD875
:101590002C44761BAC4240D1012016E0304639780D
:1015A000FFF772FF80B10137013CE9E7C6F3090795
:1015B000C7F58067BC424FF000001C4938BF24F0DB
:1015C0000307FFF7F3FE18B9002003B0BDE8F0836E
:1015D000042231460DEB0200FFF712FE0146052002
:1015E000FFF71AFE0128EFD1A84627F00309A94406
:1015F000C84509D100210E20FFF70EFE0128E3D1D6
:101600003E443D44E41BC1E741460D20FFF704FE84
:101610000128D9D108F10408EAE7A81915F8011B37
:10162000FFF732FF0028B5D1CEE700BF52000023FC
:1016300038B50C4601460C48FFF7FCFE58B10025B2
:1016400021460A48FFF7E4FE28B12368DB0304D4EF
:101650000135642DF4D1002038BD2146BDE8384065
:101660000348FFF7D5BE00BFF4ED00E0F0ED00E069
:10167000F8ED00E013B504460C480191FFF7DAFEDF
:1016800080B10B4844F48031FFF7D4FE50B164249C
:10169000084801A9FFF7BCFE20B1019BDB0302D47F
:1016A000013CF5D1002002B010BD00BFF8ED00E014
:1016B000F4ED00E0F0ED00E02DE9F0431F461646A2
:1016C000044693B088462422002105A807F0A3FA17
:1016D0001A9B019603931B9B0297049363792579C8
:1016E000002145EA0325A379082045EA0345E3796B
:1016F00045EA03650A95627A237A43EA0223A27ACD
:1017000043EA0243E27ACDF8408043EA02630E9353
:101710002278637842EA0322A37842EA0342E3781C
:1017200042EA03624FF080730F921193FFF716FEA7
:10173000002842D00DF104080024C1462046D8F804
:101740000010FFF797FF002837D00134042C08F170
:101750000408F3D129460920FFF78CFF68B30D2454
:10176000204659F82410FFF785FF30B30134102CC0
:10177000F6D14FF080712046FFF77CFFE8B11E499B
:101780001E48FFF757FEC0B11D491C48FFF752FE27
:1017900098B169460420FFF7D0FD70B1009B13F0AB
:1017A000A00F0AD1174C69461448FFF731FE20B14B
:1017B000009B9A0305D4013CF5D1002013B0BDE88D
:1017C000F08349460020FFF733FF0028F5D00E498B
:1017D0000A48FFF72FFE0028EFD09DF870300198DF
:1017E000012B04D13E44331A58425841E6E7B0FA7F
:1017F00080F04009E2E700BF0B005FA0F0ED00E0E1
:1018000009005FA040420F0003005FA013B5FFF77F
:10181000CFFC4EF29E73002401A91020ADF80430D5
:10182000FBF780FFFFF7C4FC694608208DF80040F5
:10183000FBF778FF204601A9FFF77FFD02B010BD3E
:101840004FF0FF3273B504252D4B2E4E1A605A60AF
:10185000FFF73CFD336813B19B6803B19847FFF76E
:10186000D5FFA8B96C1E14F0FF0445D0012100205B
:10187000FFF774FD012004F0F1FC022003F078F87A
:10188000002004F0EBFC022003F072F82546DFE7AD
:10189000FFF788FD0028E5D000210820FFF75EFD56
:1018A0000028DFD04FF0A0410420FFF757FD0028AB
:1018B000D8D00024042001A9FFF73FFD0028D1D093
:1018C000019B03F02043B3F1204F03D00134642C7B
:1018D000F0D1C7E704200C49FFF740FD0028C1D034
:1018E000336813B11B6903B1984700210820FFF743
:1018F00035FD04460028B5D0204602B070BD00BFBB
:10190000D01E002014290020000F0050062873B5B7
:10191000044607D14F495048FFF78CFD60B1FFF7EF
:1019200053FC0FE0FFF7D2FC072C05D8DFE804F0EA
:1019300007190C62657C040A002002B070BD01200A
:1019400004F08CFC0120F8E7012004F087FC022061
:1019500003F00EF8002004F081FC022003F008F8E8
:10196000DDE7FFF76DFF0028E6D03C4C207801282A
:1019700004D104F073FC022002F0FAFF02260EE00C
:10198000012ED9D0012004F069FC022002F0F0FF02
:10199000284604F063FC022002F0EAFF01263049E9
:1019A0002D48FFF747FD05460028E9D001212D48C5
:1019B000FFF740FD0028BFD023782BB9012004F0A9
:1019C0004DFC022002F0D4FF002004F047FC02206E
:1019D00002F0CEFF204801A9FFF71AFD0028ABD086
:1019E000019B9A03F6D500211E4802B0BDE8704065
:1019F000FFF720BD17491848F7E7FFF707FF002852
:101A00009AD0FFF7CFFC002896D000210820FFF7DE
:101A1000A5FC002890D04FF0A0410420FFF79EFCC9
:101A2000002889D00E49E6E7FFF70AFF002883D097
:101A30000D490948FFF7FEFC00283FF47DAF06483A
:101A400001A9FFF7E5FC00283FF476AF019B9B035B
:101A5000F5D577E700005FA0F0ED00E0D81E00208C
:101A600001005FA0FCED00E003005FA0062837B591
:101A7000044609D16B496C48FFF7DCFC002800F0F4
:101A8000CF80FFF7A1FB11E0FFF720FC072C00F24D
:101A9000C780DFE814F008004B000E009E00A10094
:101AA000B400C5000B00012004F0D8FB012003B0F6
:101AB00030BD012004F0D2FB022002F059FF0020CB
:101AC00004F0CCFB022002F053FFFFF7B9FE002820
:101AD00000F0A680042001A9FFF72FFC002800F0E9
:101AE0009F800199042021F08041FFF737FC0028F6
:101AF00000F09680042001A9FFF71FFC002800F0E9
:101B00008F8001990029F5DB042021F08051FFF737
:101B100025FC002800F08480042001A9FFF70DFCBB
:101B200000287DD0019B9800F6D4AAE7FFF788FE35
:101B3000002875D002253D493B48FFF77BFC044651
:101B4000002836D0384801A9FFF762FC002867D08A
:101B5000019B9903F6D501213548FFF76BFC00285E
:101B60005ED0344801A9FFF753FC002858D0324B0F
:101B700001991B6801F4E061194341F0BF612D48F0
:101B800041F40031FFF756FC002849D0022002F052
:101B9000EFFE254801A9FFF73BFC002840D0019B40
:101BA0009A03F6D50021224803B0BDE83040FFF784
:101BB00041BC012D34D0012004F050FB022002F082
:101BC000D7FE204604F04AFB022002F0D1FE012598
:101BD000B1E714491448E7E7FFF718FE00B3FFF731
:101BE000E1FBE8B100210820FFF7B8FBC0B14FF0DE
:101BF000A0410420FFF7B2FB90B11049EAE7FFF7DC
:101C00001FFE68B109490848FFF714FC40B10648B7
:101C100001A9FFF7FDFB18B1019B9B03F7D545E731
:101C2000002044E700005FA0F0ED00E003005FA0AB
:101C3000FCED00E00CED00E02400002001005FA0BE
:101C4000284B10B51B690C3359781A7842EA0122E7
:101C5000997842EA0142D97852EA016225D15C7949
:101C6000197941EA04219C7941EA0441DC7951EA7D
:101C700004611CD11C4B1868002830D042780378CE
:101C800043EA0223827843EA0243C27843EA0263CA
:101C9000164A1360427C037C43EA0223827CC07CA8
:101CA00043EA024343EA006019E0824218D85C79B3
:101CB000197941EA04219C7941EA0441DC7941EA3D
:101CC000046181420CD309490A605A7C187C40EABD
:101CD00002209A7CDB7C40EA024040EA036010BDAF
:101CE0001433B1E7F4A10108E01E0020DC1E00203F
:101CF000024B1878431E584258417047E91E002095
:101D00007FB5244E05463278824202D1002004B0CD
:101D100070BD214B1C6812B9EDB93570F6E794F827
:101D20003830990701D50028F7D163792179E07916
:101D300041EA0321A37941EA0341002341EA00611A
:101D400002930193009304F11800FFF7B5FC0028FB
:101D5000E2D10C20DBE794F838309B0702D53378CA
:101D6000002BDAD163782178E07841EA0321A37867
:101D70000A4A41EA0341002300950293019341EA94
:101D80000061126804F11800FFF796FC0028C4D126
:101D90000B20BCE7E81E0020E41E0020DC1E002013
